:020000040000fa
:080000000002040000000000f2
:020000040000fa
:100008009402000094020000940200009402000090
:100018009402000094020000940200009402000080
:100028009402000094020000940200009402000070
:100038009402000094020000940200009402000060
:100048009402000094020000940200006c1e00005c
:100058009402000094020000940200009402000040
:100068009402000094020000940200009402000030
:100078009402000094020000940200009402000020
:100088009402000094020000940200009402000010
:100098009402000094020000940200009402000000
:1000a80094020000940200009402000094020000f0
:1000b80094020000940200009402000094020000e0
:1000c80094020000940200009402000094020000d0
:1000d80094020000940200009402000094020000c0
:1000e80094020000940200009402000094020000b0
:1000f80094020000940200009402000094020000a0
:10010800940200009402000094020000940200008f
:10011800940200009402000094020000940200007f
:10012800940200009402000094020000940200006f
:10013800940200009402000094020000940200005f
:10014800940200009402000094020000940200004f
:10015800940200009402000094020000940200003f
:10016800940200009402000094020000940200002f
:10017800940200009402000094020000940200001f
:10018800940200009402000094020000940200000f
:1001980094020000940200009402000094020000ff
:1001a80094020000940200009402000094020000ef
:1001b80094020000940200009402000094020000df
:1001c80094020000940200009402000094020000cf
:1001d80094020000940200009402000094020000bf
:1001e80094020000940200009402000094020000af
:0801f8009402000094020000d3
:020000040000fa
:10020800940200009402000094020000940200008e
:10021800940200009402000094020000940200007e
:10022800940200009402000094020000940200006e
:10023800940200009402000094020000940200005e
:100248009402000094020000940200006c1e00005a
:10025800940200009402000094020000940200003e
:10026800940200009402000094020000940200002e
:10027800940200009402000094020000940200001e
:10028800940200009402000094020000940200000e
:1002980094020000940200009402000094020000fe
:1002a80094020000940200009402000094020000ee
:1002b80094020000940200009402000094020000de
:1002c80094020000940200009402000094020000ce
:1002d80094020000940200009402000094020000be
:1002e80094020000940200009402000094020000ae
:1002f800940200009402000094020000940200009e
:10030800940200009402000094020000940200008d
:10031800940200009402000094020000940200007d
:10032800940200009402000094020000940200006d
:10033800940200009402000094020000940200005d
:10034800940200009402000094020000940200004d
:10035800940200009402000094020000940200003d
:10036800940200009402000094020000940200002d
:10037800940200009402000094020000940200001d
:10038800940200009402000094020000940200000d
:1003980094020000940200009402000094020000fd
:1003a80094020000940200009402000094020000ed
:1003b80094020000940200009402000094020000dd
:1003c80094020000940200009402000094020000cd
:1003d80094020000940200009402000094020000bd
:1003e80094020000940200009402000094020000ad
:0803f8009402000094020000d1
:020000040000fa
:100400002fc520000edf20000e0188000000000034
:1004100000012000200288000c000700603c220040
:100420000100200011000700000020000000e00093
:100430000200320000000200000000006e230200f3
:10044000000000000040da000000fe004440a90067
:10045000a03d20000000e00003003200000020006a
:10046000a00188004440a800000006009101880017
:10047000800078000000eb0015003700e2804000ab
:1004800032a0b4009101ba00e280400032a0b40072
:100490009102ba00e280400032a0b4000002eb00fa
:1004a000472bde00f507b200602ce10004003a00a3
:1004b0000059eb008301e900fdff3e000400370016
:1004c0006128e100010032000082eb000400070017
:1004d0001101ba000200e000e8ff3a000000060047
:1004e0003159ba008301e9000c0032002159ba00e9
:1004f0008301e900080032000400e00003003a0034
:10050000e280400032a0b400f5ff370011d9ba00f4
:100510008301e900faff3a008100e800e180400031
:1005200032a0b400000006000040da000000fe0027
:10053000800078001104b100030035009101b10082
:1005400001003c000050a0000000060000027800fe
:1005500002003700315a78000201e900e00f510033
:10056000fcff3a000000060000027800020037009d
:10057000015a78000201e900e00f5100fcff3a0047
:10058000000006000002780084027800050278006e
:100590000043eb00b44f1300fbff3a0031427800f8
:1005a000845a7800e04f5200fcff3a000000060039
:1005b000000278008042eb00b4cf1200fdff3a0049
:1005c0000080ea00000042000000060000027800ff
:1005d000060037000201e90031437800065a78002e
:1005e00084027800e04f5300060032008402780055
:1005f000e00f5100f7ff3a0002003700805aeb008d
:100600000201e900e00f5100fcff3a000000060083
:10061000889fbe000004be000b0037000900780070
:10062000e3ff0700000178000800be002500070076
:10063000e00f50000a0032000800e8009900fb00bb
:100640000a00070000047800e00f540004003200a4
:100650000042eb00984f1200f0ff3a000004eb005c
:10066000080078004f04be0000000600881f7800d4
:100670000002eb006103b800060478006121b800b5
:1006800006004100e842790081cf520004003200a8
:100690000402e800e0cf5200f8ff3a000000eb004f
:1006a0004f047800000006000000fa00688157003f
:1006b000cfb8970000c32000130007000080fa00a5
:1006c000000006000b00370030427800e04f520077
:1006d000030032000201e900b14f52000500320070
:1006e0000480fb00954278008582fb0005005000e5
:1006f0000000060081027800e00f5100f2ff3a008e
:1007000002007800000006002f03b000889fbe00a2
:100710008a9fbe008c9fbe008e1f7800e0af9f00b6
:10072000c1af9f00b2b79f008006eb006e0237009a
:10073000cfa897008100e800c1af9f0054c2b3006a
:10074000844f500006003a00010278000006eb00da
:1007500001c3b30000c2b300b7c2b3000700370043
:100760000000fb00efa897006b020700e10f4000bc
:100770005d0232008d06e8005b02370084027800db
:1007800034437800d2c2b300824f530009003200d4
:1007900005003c00804f530008003200874f530093
:1007a0000c003a0007003700814f530009003a005f
:1007b000060037000c30a000f0ff37000c00a0004e
:1007c000eeff37000c10a000ecff37000c20a0005b
:1007d000eaff370062026600010032000c00a1004f
:1007e00068026600010032000c20a1000602fb0036
:1007f0000403b100e90f52000c003e00050378002d
:100800000002eb006a22b900b603fb000703b10047
:1008100004824300860278009603fb000703b100c0
:10082000e98f5300f7ff3600080037000002eb00a5
:10083000a7c2b300874f530004003a00bfb197002e
:1008400043027800b3b79f008502e8000007eb0081
:10085000e6c2b300954f13000a003a000ce0a00076
:1008600064435300d54f13000200320005037800a3
:10087000080037003fb3970046077800b6b79f00df
:100880008502e80005037800080037006a70b900a7
:100890000087430086027800b603fb000703b1001f
:1008a000e98f5300f9ff3600f6ff3700b6427800b3
:1008b000c6af9f00c0c6b30080cf520025003200f3
:1008c0000f003c0036c6b30086cf52006e003200e7
:1008d00004003c00e0cf5200080232006b4353009a
:1008e0000f00370046c6b30086cf52001700320013
:1008f0006543430086cf520083003a00130037005f
:1009000036c7b30086cf52001f00320007003c00fc
:100910006443530086cf5200140032000643e800bf
:1009200086cf520078003a001300370056c7b30054
:1009300086cf5200790032006343430086cf5200d5
:1009400071003a00a5c79f000d003700a5c79f00a2
:1009500074003700f003660005012000010032003a
:100960000500280005067600d0ff3700a5c79f00c8
:100970000c60a0006b003700a5c79f000c50a000c2
:100980000c70a00067003700a5c79f00bfb097009c
:10099000c1027800b1b79f0005047800e08f5200d3
:1009a00001003a00c8c12000080378008002eb0073
:1009b000010037008502e800e6c37a00e0cf53006b
:1009c000fcff3a0085047800e00f57000300320076
:1009d000890f5700010031008e0478000007eb00fa
:1009e000890f5200010036000907520068066600b0
:1009f00014003a0007003700efa89700000220001b
:100a0000c5010700e10f4000010032008d06e8003b
:100a10000e07e900e00f5700f7ff3a000087eb00f0
:100a200008003700080278003400fb000404780056
:100a3000efa89700b8010700e10f40000100320065
:100a40008d06e800090278008404e900e00f5200f6
:100a5000f4ff3a00e00f5600a30132000700370010
:100a6000efa8970000022000ab010700e10f400053
:100a7000010032008d06e8000e07e900e00f570084
:100a8000f7ff3a00980137003fb19700c2027800a3
:100a9000b2b79f0005007800cf80de00010178002a
:100aa00082017800f0af9f0081b79f0092b79f004e
:100ab000a3b79f004800de00c80add000080720076
:100ac000a0c79f007003660009003200e04f50008d
:100ad00007003200e14f400005003200b0c79f0020
:100ae0006fdb9700c6c79f00290020000300370076
:100af000efdb9700b7c79f001900200038fc2f00dc
:100b00000f044400b0ff3700a5c79f0028fc2f004a
:100b10000f04440019002000abff3700a5c79f0059
:100b20000c0cb3008c027800050cb2002b003a00cc
:100b3000e00f560005003d003fb097004005be00a5
:100b40004004be00b0b79f0017003700f0026600f7
:100b50000f003200bfb297004501be00b5b79f003d
:100b6000c2a79f00d3a79f000503780096029000bc
:100b7000cfaade00e5a79f00f5a79f004fa497002e
:100b8000dfa497006fa59700ffa597000600370028
:100b90003fb0970040047800b0b79f00cfc4de009c
:100ba000090578008a057800e00f5400e08f5c00aa
:100bb000e00f5d00e08f5d0025003d003c00b300cc
:100bc0006000b8006011b800080450008984580023
:100bd0000a0559008b8559001d003700e00f5600ab
:100be00005003d00bfb097004105be004104be00b6
:100bf000b1b79f0016003700f00266000e00320009
:100c0000bfb297004501be00b5b79f0082af9f00fd
:100c100093af9f000003eb00a6af9f008003eb00a3
:100c2000b7af9f000fac97009fac97002fad970018
:100c3000bfad9700060037003fb097004004780032
:100c4000b0b79f00090020000a0020000b00200020
:100c5000e00f570007003a001e002000e00f54008c
:100c6000e08f5c00e00f5d00e08f5d00010032006e
:100c70000007eb008c007800010cb200f1af9f0080
:100c800005042000858f50002c00320003003c003a
:100c9000e08f5000080032003c00370005082000bb
:100ca0007fa99700850f510010003200050c20002d
:100cb000850f510035003a0086ac200015c0b30006
:100cc0003600be003601be000040e10001c8e10070
:100cd00002d0e10003d8e1002b0039008542e80092
:100ce000f4cf5200f6ff3a002700370015c0b300da
:100cf00000012000010020006011b8000040e10068
:100d000001c8e10002d0e10003d8e1001e00390073
:100d1000460020000000d0008180d2000281d20075
:100d20008381d2000603e900faff3a008542e80019
:100d3000f0cf5200f1ff3a001300370015c0b300a6
:100d400080002000010020006011b8000040e10098
:100d500001c8e10002d0e10003d8e1000a00390037
:100d6000370020000000d0008180d2000281d20034
:100d70008381d2008703e900faff3a008542e80048
:100d8000f5cf5200f1ff3a00a5c79f002fc0970092
:100d90008002fb008e8f520002003d00aec79f0014
:100da00003003700850f570001003d00050778005c
:100db000e00f520003003200e3026600010032003f
:100dc0000402e900050024008502660005003200e7
:100dd0008e0f5200020034000e0252000100370054
:100de0000002eb002fc197008202fb008001eb00a4
:100df000d3af9f00850f52000200340085025200dd
:100e0000d5af9f00640266002c003200e20266004b
:100e100061026600e08f520006003200b00220003e
:100e2000e00f5200010032000080e800efa89700b8
:100e300004003700e00f520006003200efa89700d0
:100e400000022000b4000700e10f40000100320062
:100e50008d06e8005faa9700e00f52008d00320077
:100e60000802be000a03be00dfac9700efa897009f
:100e700000032000c4b79f00d5b79f00e6b79f00ce
:100e8000f7b79f00a40007004fb29700dfb29700aa
:100e90006fb39700ffb39700e10f400001003200ed
:100ea0008d06e8008904e900f0ff3a00d9af9f0001
:100eb0000605be000404be0076003700dfaa9700d6
:100ec000e08f5200180032006802660016003a00f7
:100ed0000802be000a03be00dfac9700efa897002f
:100ee00000022000c4b79f00d5b79f00e6b79f005f
:100ef000f7b79f00880007004fb29700dfb2970056
:100f00006fb39700ffb39700e10f4000010032007c
:100f10008d06e8008904e900f0ff3a00d9af9f0090
:100f20000605be000404be00e2026600610266001f
:100f3000e08f520006003200b0022000e00f5200a5
:100f4000010032000080e800efa89700040037009d
:100f5000e00f52004f003200efa89700000220007f
:100f60006d000700e10f40004a0032008d06e800e6
:100f7000480037000e07e9007fab97000704200008
:100f8000870f53002d00320003003c00e00f530098
:100f90000800320037003700040820007fae9700b9
:100fa000840f560012003200040c2000840f5600fb
:100fb00030003a004372dd0000ac20000002420025
:100fc0005403be004402be000800be000a01be0079
:100fd000b4010700a4002000050020006033b80021
:100fe000b701070004c3b3000442400020003700eb
:100ff000b4c02000bfa29700e08f52000100320071
:10100000a4bf2000c272dd000800be000a01be00bd
:101010008502e900050033008301d1000281d3007d
:101020008180d3000080d300f9ff37006f0060009b
:1010300064407800a0c79f000e0037006372b900bb
:101040000800be000a01be00040678000c06e90094
:10105000050033008301d1000281d3008180d300d9
:101060000080d300f9ff3700674260000443b000fe
:10107000a4c79f00afc097000100fb00efa8970036
:1010800025000700e10f4000060032008d06e80051
:10109000040037000c0178000202b200b2a79f00e2
:1010a0008cbf9f00e00f5700b2ff3a000fbe9700c1
:1010b000680666000c003200dfa99700e08f51003f
:1010c0000900340003067800efa897000002200012
:1010d00011000700e10f4000010032008d06e8001a
:1010e0000c06e900f8ff3a004faa97001440780078
:1010f000a0c79f00e04f50008dfd3a000d00780022
:101100004f0778004f06be004f05be004f04be00db
:101110002f03b10000000600889fbe000104780084
:1011200038029000e20262008084eb003b00320053
:10113000040378000620b2009802900002003a00f2
:10114000e08f520035003a000490a000340498006b
:1011500080047800f90fb200e08f520002003a00dc
:10116000a8029000050c7800ea8f540005003a00b0
:101170000408b20003003a0088007800d000200084
:10118000e5ff070018029000d8029000850f52007a
:101190000b0032000402e8001404980018027800e2
:1011a000094a7800040ce80015c0b300a4c420006c
:1011b000054a7800ea8f540018003a00050037000d
:1011c0008800780009407800170007008004780044
:1011d00012003700380290000410b2000f003200f5
:1011e00018019000a80090004800900052000700ed
:1011f00018029000840f5000040032003802900062
:101200000403b300340498008084eb000002eb0078
:101210001404980028029000040c7800090078005b
:101220004f04be00000006000200fa00889fbe00c6
:10123000a0ff9f000104780038029000840278002b
:101240000504b200020032000000fb003500370048
:10125000e202620005003a000403b300340498007f
:10126000150498000080eb002e003700d804900091
:10127000e08f540006003a0012002000e68057007c
:10128000480090002c000700190498002300370044
:10129000a8029000e08f520008003a00d5c4200058
:1012a00025049800050c78002500200055049800be
:1012b000150498000430a000340498001801900030
:1012c000a8009000480090001b0007002802900032
:1012d0008082eb0015049800affa9700054a780069
:1012e000040ce8002ffa9700ea4f52000b003a0076
:1012f000380290000410b20008003200180190007b
:10130000a8009000480090000b0007000002eb00ce
:1013100014049800a8029000050c78002ffa97009a
:101320000400fb004f04be000080fa00000006002d
:1013300000c0da00000006000a00fa00e20f5000c8
:1013400022003e0084628000e10f5200060032005d
:10135000872320004623200024232000052320008b
:10136000e08f530004003a0087222000462220002c
:101370002422200005222000000028001500600023
:1013800003003a00800b780007002800958a73005c
:10139000054020009482620001003a0014a0a000e1
:1013a0008202780006003700940378000710b2002c
:1013b000fdff3200b103fb00070b78008502e90056
:1013c000e08f5200f8ff3a00080037003400200098
:1013d000b4bf9f00c0bf9f00d1bf9f00e2bf9f006e
:1013e0006a805700d2ff07006fb9970002007800ab
:1013f0000080fa0000000600889fbe008a9fbe00a1
:101400003004be002005be000404440085844c0066
:1014100006054d0087854d000898be000a90be0065
:101420000440e10005c8e10006d0e10007d8e10072
:1014300002003100680040001008e8004f05be00bf
:101440004f04be00000006001000fa00889fbe0096
:101450008a9fbe000605be000404be003002be0026
:101460002003be00c4b79f00d5b79f00e6b79f001a
:10147000f7b79f000802520089825a000a035b00f6
:101480008b835b0084bf9f0095bf9f00a6bf9f001a
:10149000b7bf9f000498be000698be001100200050
:1014a0004fb29700dfb297006fb39700ffb397007a
:1014b0000820e10009a8e1000ab0e1000bb8e10052
:1014c000010039008000eb00108810004f05be00bd
:1014d0004f04be000080fa00000006001400fa006d
:1014e000889fbe008a9fbe008c9fbe003f00070001
:1014f0000605be000404be000006eb00ccb79f004a
:10150000bcb79f00acb79f009cb79f008cb79f00f3
:101510000d0420004fb39700bfb29700860343002d
:101520002fb29700e00f530004003d003d0007007c
:101530000f004000b0ff070003003700390007002c
:101540000f004000c0ff0700cfb2970095bf9f007b
:10155000e08f5200090035002b0007001400200026
:10156000050020006033b800000072008180720026
:1015700002017300838173001c0007000c06e80061
:101580008d0f5600e3ff3a001fba9700e00f52009c
:1015900005003d000802be000a03be0000fe2f0049
:1015a0000f00400094ff07004faa9700e00f520081
:1015b00008003a000fb497009fb497002fb597002a
:1015c000bfb59700d8b79f00e9b79f00fab79f0053
:1015d0008bbf9f000c0007004f06be004f05be00ea
:1015e0004f04be000080fa00000006000100070062
:1015f0000000060090b79f00a1b79f00b2b79f0000
:10160000c3b79f00000006000100070000000600ad
:101610001fb09700afb097003fb19700cfb19700d0
:10162000000006004f2bde0087037300a7b79f0062
:101630004f23de00858242008502730095b79f002c
:10164000ffaa97004f2bde00040242000402730041
:1016500084b79f006faa97004f23de008582420067
:1016600085027300f5af9f00e9ff07004f18de0009
:101670000402420000027200e4af9f00e4ff070092
:101680000000400081804800020149008381490038
:10169000d8ff07000802be000a03be0000fe2f00ac
:1016a00000000600881f780018002000881f7800be
:1016b0008aff07008f87e9004f04780000000600ca
:1016c000801feb0085ff07008f87e9000000060000
:1016d000889fbe008a9fbe00e00f5000e08f580038
:1016e000e00f5900e08f59000c003d006044b80045
:1016f0006055b8000000540081805c0002015d006c
:1017000083815d00180020001500070008003d00df
:10171000180007000004eb00050037000004eb0090
:101720000f00070002003d00120007001800200013
:10173000dcff0700e00f5400060032006022b80012
:101740006033b8000000520081805a0002015b0043
:1017500083815b004f05be004f04be000000060001
:10176000e00f5200e08f5a00e00f5b00e08f5b005b
:10177000000006006044b8006055b8000402540040
:1017800085825c0006035d0087835d000000060023
:10179000889fbe008a9fbe008c1f7800e00f50001b
:1017a000e08f5800e00f5900e08f59000d003d0018
:1017b0006044b8006055b8000000540081805c00af
:1017c00002015d0083815d001c0020000820e10013
:1017d00009a8e1000ab0e1000bb8e1000d003d00ee
:1017e000080037000006eb00e00f5200e08f5a00bf
:1017f000e00f5b00e08f5b0006003d006044b80036
:101800006055b8000402540085825c0006035d0048
:1018100087835d00aaff0700e00f56000600320034
:101820006022b8006033b8000000520081805a0086
:1018300002015b0083815b004f0678004f05be000c
:081840004f04be000000060089
:020000040000fa
:101848001300000003000000020000001100000067
:10185800100000000100000000000000120000005d
:101868002020000020200000202000002020000070
:1018780020200000202000005049000043440000c0
:1018880052450000414d0000204900004920000059
:101898006279000020460000314300004a4e0000f3
:1018a80020200000616c0000616900006e2e0000bd
:1018b800504900004344000052450000414d0000db
:1018c80020490000492000000d0a00003e000000e9
:1018d8002020000020200000202000002020000000
:1018e8002020000020200000000d0000003c000027
:1018f800743100003e0000003c740000323e0000dd
:10190800003c0000633100003e0000003c63000022
:10191800323e0000003c0000623100003e00000042
:101928003c620000323e0000003c000073310000c1
:101938003e0000003c730000323e0000003c000006
:10194800663100003e0000003c660000323e0000a8
:10195800003c000062610000723e0000003c000094
:10196800736d000070740000653e0000003c0000cc
:10197800773e00000079000065730000003c00001d
:10198800686500006c7000003e0000003c720000ba
:1019980065730000657400003e0000007768000071
:1019a800007900006500000063790000006700000e
:1019b800720000006d610000007200006500000008
:1019c800626c0000006200006b0000002a2a000020
:1019d800202000002050000049430000445200002d
:1019e800454100004d2000004949000020560000f4
:1019f80069640000656f000020470000656e000004
:101a080065720000617400006f72000020620000bf
:101a18007920000046310000434a00004e200000b3
:101a2800202000002a2a00000d0000003c7400005d
:101a3800313e00006d790000746500007874000084
:101a4800203d00002074000065780000742000002c
:101a58006c6900006e650000203100000d00000078
:101a68003c740000323e00006d790000746500008f
:101a780078740000203d00002074000065780000a4
:101a8800742000006c6900006e65000020320000c0
:101a98000d0000003c630000313e00007878000033
:101aa800203d0000206300006f6c00006f72000092
:101ab8002074000065780000742000006c69000044
:101ac8006e650000203100000d0000003c6300003e
:101ad800323e000078780000203d000020630000be
:101ae8006f6c00006f7200002074000065780000c1
:101af800742000006c6900006e6500002032000050
:101b08000d0000003c620000313e000078780000c3
:101b1800203d0000206300006f6c00006f72000021
:101b280020620000616300006b670000726f0000b4
:101b3800756e0000642000006c6900006e6500008e
:101b4800203100000d0000003c620000323e000021
:101b580078780000203d0000206300006f6c0000d2
:101b68006f72000020620000616300006b67000074
:101b7800726f0000756e0000642000006c69000040
:101b88006e650000203200000d000000436f000069
:101b98006c6f00007273000020780000782000004d
:101ba8003a2000006d6100003d6d00006167000093
:101bb800656e0000746100002c200000776800004a
:101bc8003d2000007768000069740000652c000063
:101bd80020790000653d0000796500006c6c00000c
:101be8006f7700002c200000626b00003d6200004f
:101bf8006c610000636b00000d000000436f000083
:101c08006c6f0000727300002078000078200000dc
:101c18003a200000637900003d630000796100000c
:101c28006e2c000020720000653d0000207200004c
:101c3800656400002c200000677200003d6700000a
:101c480072650000656e00002c200000626c0000c8
:101c58003d6200006c750000650d00000045000045
:101c6800786500006d7000006c650000203a000087
:101c7800203c0000633100003e6300007920000032
:101c88003d200000636f00006c6f000072200000b0
:101c98007465000078740000206c0000696e000014
:101ca800652000003120000063790000616e0000ab
:101cb8000d0000003c730000313e0000203d000094
:101cc80020730000637200006f6c00006c2000003d
:101cd8006c6900006e650000203100000d000000f6
:101ce8003c730000323e0000203d000020730000dd
:101cf800637200006f6c00006c2000006c690000cb
:101d08006e650000203200000d0000003c660000f7
:101d1800313e0000203d0000206c0000696e00008c
:101d28006520000031200000666900007865000029
:101d3800642000000d0000003c660000323e0000f8
:101d4800203d0000206c0000696e00006520000046
:101d580032200000666900007865000064200000f9
:101d68000d0000003c620000617200003e2000008f
:101d78003d200000636f00006c6f0000727300006c
:101d88002062000061720000732000000d00000056
:101d98003c7300006d700000746500003e20000078
:101da8003d200000736d0000707400006520000085
:101db8006261000072730000200d0000003c00000a
:101dc800773e0000203d0000207700007269000087
:101dd80074650000206100006c6c00002069000040
:101de8006e2000006d6500006d6f000072790000c4
:101df8002c2000006e65000065640000207400005f
:101e08006f200000636f00006e66000069720000ba
:101e18006d200000776900007468000020790000d8
:101e280065730000200d0000003c00007265000092
:101e380073650000743e0000203d00002072000021
:101e48006573000065740000207400006f200000b6
:101e58006f72000069670000696e0000616c000025
:101e6800200d0000003c0000686500006c70000058
:101e78003e2000003d2000007468000069730000e7
:101e8800206d000065730000736100006765000045
:101e9800200d00000020000020200000200d000080
:101ea800006300006d640000203d00002025000054
:101eb800780a0000004300006f6d00006d610000ab
:101ec8006e6400003f0d00000057000052490000fa
:101ed800544500002079000065730000203f000091
:101ee8000d0000002a2a00002a2000005752000096
:101ef80049540000452000004f4b0000202a0000f4
:101f08002a2a00000d0000002a2a00002a200000ca
:101f18005245000053450000542000002a2a0000c2
:101f28002a2000000d0000002020000020200000d2
:101f38002020000020200000202000002020000099
:101f48000000000000000000000000000000000089
:101f58000000000000000000000000000000000079
:101f68000000000000000000000000000000000069
:101f78000000000000000000000000000000000059
:101f88000000000000000000000000000000000049
:101f98000000000000000000000000000000000039
:101fa8000000000000000000000000000000000029
:101fb8000000000000000000000000000000000019
:101fc8000000000000000000000000000000000009
:101fd80000000000000000000000000000000000f9
:101fe80000000000000000000000000000000000e9
:041ff80000000000e5
:020000040000fa
:101ffc0000002000605f8800705f880040002000b7
:10200c00905f8800ca02a900af010900000000001f
:10201c00ec2bec00ca02a8004a00090000000000ea
:10202c00ca02a900af01090000000000ca02a80002
:10203c004600090000000000f82bef00f82bec0024
:10204c0000000000f82bec00ca02a900b001090046
:10205c0000000000ca02a8004a00090000000000ad
:10206c00ca02a900b001090000000000ca02a800c1
:10207c004a000900f82bec00ca02a900b0010900c3
:10208c0000000000ca02a8004a000900000000007d
:10209c00ca02a9002200090000000000ca02a80020
:1020ac00d8010900f82bec00ca02a9002200090093
:1020bc0000000000ca02a800d801090000000000be
:1020cc00ca02a9002200090000000000ca02a800f0
:1020dc00d8010900f82bec00ca02a9002200090063
:1020ec0000000000ca02a800d8010900000000008e
:1020fc00ca02a9002200090000000000ca02a800c0
:10210c00d8010900f82bec00ca02a90060022000db
:10211c00b05f88000616020000000000ca02a90089
:10212c0046000900000000001e170200000000001d
:10213c00ca02a90000408000005f88000000000077
:10214c00000000006e12020000000000ca02a9008c
:10215c00a0002000b05f88000616020000000000fe
:10216c00ca02a90000092000b05f880022160200f4
:10217c0000000000ca02a90030012000b05f8800f6
:10218c008216020000000000ca02a900a000200074
:10219c00b05f88000616020000000000ca02a90009
:1021ac004600090000000000aa1702000000000011
:1021bc00ca02a90010408000105f880000000000d7
:1021cc00000000003a14020000000000ca02a9003e
:1021dc00a0012000b05f880006160200000000007d
:1021ec00ca02a9002200090000000000ca02a800cf
:1021fc00d801090000000000ca02a9002200090051
:10220c0000000000ca02a800d8010900000000006c
:10221c00ca02a9002200090000000000ca02a8009e
:10222c00d801090000000000ca02a9002200090020
:10223c0000000000ca02a800d8010900000000003c
:10224c00ca02a9002200090000000000ca02a8006e
:10225c00d801090000000000ca02a900b001090061
:10226c0000000000ca02a8004a000900000000009b
:10227c00ca02a900b001090000000000ca02a800af
:10228c004a00090000000000ca02a900b0010900c0
:10229c0000000000ca02a8004a000900000000006b
:1022ac00ca02a900b001090000000000ca02a8007f
:1022bc004a00090000000000ca02a900b001090090
:1022cc0000000000ca02a8004a000900000000003b
:1022dc00ca02a9002200090000000000ca02a800de
:1022ec00d801090000000000ca02a9002200090060
:1022fc0000000000ca02a800d8010900000000007c
:10230c00ca02a9002200090000000000ca02a800ad
:10231c00d801090000000000ca02a900220009002f
:10232c0000000000ca02a800d8010900000000004b
:10233c00ca02a9002200090000000000ca02a8007d
:10234c00d801090000000000fe0109000000000097
:10235c00ca02a90050022000b05f880006160200d5
:10236c0000000000ca02a90046000900000000009d
:10237c001e17020000000000ca02a90000408000e5
:10238c00005f880000000000000000006e120200d8
:10239c0000000000ca02a900a0002000b05f880065
:1023ac000616020000000000ca02a9000009200065
:1023bc00b05f88002216020000000000ca02a900cb
:1023cc0030012000b05f880082160200000000007f
:1023dc00ca02a900a0002000b05f88000616020007
:1023ec0000000000ca02a90046000900000000001d
:1023fc00aa17020000000000ca02a90010408000c9
:10240c00105f880000000000000000003a14020079
:10241c0000000000ca02a900a0012000b05f8800e3
:10242c000616020000000000ca02a90048000900bc
:10243c0000000000ca02a800b20109000000000060
:10244c00ca02a9002200090000000000ca02a8006c
:10245c00d801090000000000ca02a90022000900ee
:10246c0000000000ca02a800d8010900000000000a
:10247c00ca02a9002200090000000000ca02a8003c
:10248c00d801090000000000ca02a90022000900be
:10249c0000000000ca02a800d8010900f82bec00cb
:1024ac00ca02a9002200090000000000ca02a8000c
:1024bc00d601090000000000d2fe37000000000029
:1024cc0000000000ca02a90004000900000000007e
:1024dc00f20be2000c003a0037002000975f8800f6
:1024ec000201e800645f80006f20e1000c00340002
:1024fc0000000000045f80006120e1000c0032004d
:10250c00ee2bec000c003700f22bed00000000006d
:10251c0000000000000000000000000000000000af
:10252c00000000000000000000000000000000009f
:10253c000000000000000000000000001100090075
:10254c00000000000eb820000db620003d027800ff
:10255c00020042001042ba00041f78003d027800cd
:10256c00020042001042ba00041f78003d027800bd
:10257c00020042001042ba00041f78003d027800ad
:10258c00020042001042ba00041f78003d0278009d
:10259c00020042001042ba00041f7800ca02a800d0
:1025ac003d027800020042001042ba00041f78007d
:1025bc003d027800020042001042ba00041f78006d
:1025cc003d027800020042001042ba00041f78005d
:1025dc003d027800020042001042ba00041f78004d
:1025ec003d027800020042001042ba00041f78003d
:1025fc003d027800020042001042ba00041f78002d
:10260c003d027800020042001042ba00041f78001c
:10261c0000052000645f8000e00be2000100320046
:10262c000002eb004222dd00345f880004025000ff
:10263c000c000900000000004040800010168800cb
:10264c0004800900000000000eb820003e02780053
:10265c0079002000604080000402d10001003100ac
:10266c004040800010168800000000008904e9003a
:10267c00f8ff3a003e0278007900200060408000ac
:10268c000402d10001003100404080001016880087
:10269c00000000008904e900f8ff3a003e027800cf
:1026ac0079002000604080000402d100010031005c
:1026bc004040800010168800000000008904e900ea
:1026cc00f8ff3a003e02780079002000604080005c
:1026dc000402d10001003100404080001016880037
:1026ec00000000008904e900f8ff3a003e0278007f
:1026fc0079002000604080000402d100010031000c
:10270c004040800010168800000000008904e90099
:10271c00f8ff3a003e02780079002000604080000b
:10272c000402d100010031004040800010168800e6
:10273c00000000008904e900f8ff3a003e0278002e
:10274c0079002000604080000402d10001003100bb
:10275c004040800010168800000000008904e90049
:10276c00f8ff3a003e0278007900200060408000bb
:10277c000402d10001003100404080001016880096
:10278c00000000008904e900f8ff3a003e027800de
:10279c0079002000604080000402d100010031006b
:1027ac004040800010168800000000008904e900f9
:1027bc00f8ff3a003e02780079002000604080006b
:1027cc000402d10001003100404080001016880046
:1027dc00000000008904e900f8ff3a003e0278008e
:1027ec0079002000604080000402d100010031001b
:1027fc004040800010168800000000008904e900a9
:10280c00f8ff3a003e02780079002000604080001a
:10281c000402d100010031004040800010168800f5
:10282c00000000008904e900f8ff3a00345f8000e2
:10283c0004800900000000008061840010168800ec
:10284c001100090000000000f62bed001bff3a0000
:10285c00000006000000000000000000ca02a900f1
:10286c000400090000000000f20be2000c003a002a
:10287c0037002000975f88000201e800645f800049
:10288c006f20e1000c00340000000000145f800099
:10289c006120e1000c003200f02bec000c00370042
:1028ac00f22bed0000000000000000000000000012
:1028bc00000000000000000000000000000000000c
:1028cc0000000000000000000000000000000000fc
:1028dc000000000011000900000000000ebc2000e8
:1028ec000dba20003d027800020042001042ba00ee
:1028fc00041f78003d027800020042001042ba002a
:10290c00041f78003d027800020042001042ba0019
:10291c00041f78003d027800020042001042ba0009
:10292c00041f78003d027800020042001042ba00f9
:10293c00041f7800ca02a8003d0278000200420081
:10294c001042ba00041f78003d02780002004200d9
:10295c001042ba00041f78003d02780002004200c9
:10296c001042ba00041f78003d02780002004200b9
:10297c001042ba00041f78003d02780002004200a9
:10298c001042ba00041f78003d0278000200420099
:10299c001042ba00041f78003d0278000200420089
:1029ac001042ba00041f780000052000645f80000c
:1029bc00e20be200010032000002eb004222dd00db
:1029cc00545f8800040250000c0009000000000055
:1029dc0050408000101688000480090000000000a0
:1029ec000ebc20003e027800790020007040800070
:1029fc000402d10001003100504080001016880004
:102a0c00000000008904e900f8ff3a003e0278005b
:102a1c0079002000704080000402d10001003100d8
:102a2c005040800010168800000000008904e90066
:102a3c00f8ff3a003e0278007900200070408000d8
:102a4c000402d100010031005040800010168800b3
:102a5c00000000008904e900f8ff3a003e0278000b
:102a6c0079002000704080000402d1000100310088
:102a7c005040800010168800000000008904e90016
:102a8c00f8ff3a003e027800790020007040800088
:102a9c000402d10001003100504080001016880063
:102aac00000000008904e900f8ff3a003e027800bb
:102abc0079002000704080000402d1000100310038
:102acc005040800010168800000000008904e900c6
:102adc00f8ff3a003e027800790020007040800038
:102aec000402d10001003100504080001016880013
:102afc00000000008904e900f8ff3a003e0278006b
:102b0c0079002000704080000402d10001003100e7
:102b1c005040800010168800000000008904e90075
:102b2c00f8ff3a003e0278007900200070408000e7
:102b3c000402d100010031005040800010168800c2
:102b4c00000000008904e900f8ff3a003e0278001a
:102b5c0079002000704080000402d1000100310097
:102b6c005040800010168800000000008904e90025
:102b7c00f8ff3a003e027800790020007040800097
:102b8c000402d10001003100504080001016880072
:102b9c00000000008904e900f8ff3a003e027800ca
:102bac0079002000704080000402d1000100310047
:102bbc005040800010168800000000008904e900d5
:102bcc00f8ff3a00545f8000048009000000000008
:102bdc0080618400101688001100090000000000bc
:102bec00f62bed001bff3a00000006000000000071
:102bfc0000000000ca02a900020009000000000049
:102c0c004400090000000000ca02a800f82bec00e8
:102c1c00ac03090000000000f62bed00f3ff3a00b6
:102c2c00000006000000000000000000ca02a9001d
:102c3c000200090000000000000000004300090031
:102c4c0000000000ca02a800790009000000000082
:102c5c00f82bec0020618400101688006800090035
:102c6c0000000000906184001016880068000900c4
:102c7c000000000030618400101688006800090014
:102c8c0000000000406184001016880068000900f4
:102c9c0000000000506184001016880068000900d4
:102cac0000000000606184001016880068000900b4
:102cbc000000000070618400101688006800090094
:102ccc0000000000806184001016880032000900aa
:102cdc000000000000000000f62bed00d1ff3a00d0
:102cec00000006000000000000000000ca02a9005d
:102cfc000200090000000000000000004300090071
:102d0c0000000000ca02a8007500090000000000c5
:102d1c00f82bec001008e20002003a00706184000d
:102d2c0002003700206184000000000010168800ab
:102d3c0064000900000000001008e20002003a00e4
:102d4c008061840002003700906184000000000064
:102d5c001016880064000900000000001008e20052
:102d6c0002003a0050618400020037003061840098
:102d7c00000000001016880064000900000000002c
:102d8c001008e20002003a00806184000200370063
:102d9c0040618400000000001016880064000900e7
:102dac00000000001008e20002003a0030618400cc
:102dbc0002003700506184000000000010168800eb
:102dcc0064000900000000001008e20002003a0054
:102ddc008061840002003700606184000000000004
:102dec001016880064000900000000001008e200c2
:102dfc0002003a00206184000200370070618400f8
:102e0c000000000010168800680009000000000097
:102e1c008061840010168800320009000000000058
:102e2c0000000000f62bed00aeff3a00000006009b
:102e3c00ca02a800668321006c8220000eb8200014
:102e4c000db62000ee0be200040034000428ec0068
:102e5c00ee2bef00ec2bef0004003700000000001d
:102e6c000000000000000000000000000000000056
:102e7c008c057800244080006222b8008b0542004b
:102e8c00bb037800433add00861e4200bb0378008a
:102e9c00433add00861e4200bb037800433add0056
:102eac00861e4200bb037800433add00861e4200ba
:102ebc00bb037800433add00861e4200bb0378005a
:102ecc00433add00861e4200bb037800433add0026
:102edc00861e4200bb037800433add00861e42008a
:102eec00bb037800433add00861e4200bb0378002a
:102efc00433add00861e4200bb037800433add00f6
:102f0c00861e4200bb037800433add00861e420059
:102f1c00bb037800603ce10001003a000428ef009c
:102f2c000d000900000000000001eb004000200033
:102f3c00905f8800c0012000b05f88006203090028
:102f4c000000000000000600ca02a80066832100f1
:102f5c00ec8e20000ebc20000dba2000f00be2001d
:102f6c00040034000628ec00f02bef00ec2bef00f3
:102f7c00040037000000000000000000000000000a
:102f8c0000000000000000008c0578003440800038
:102f9c006222b8008b054200bb037800433add0087
:102fac00861e4200bb037800433add00861e4200b9
:102fbc00bb037800433add00861e4200bb03780059
:102fcc00433add00861e4200bb037800433add0025
:102fdc00861e4200bb037800433add00861e420089
:102fec00bb037800433add00861e4200bb03780029
:102ffc00433add00861e4200bb037800433add00f5
:10300c00861e4200bb037800433add00861e420058
:10301c00bb037800433add00861e4200bb037800f8
:10302c00433add00861e4200bb037800603ce100a1
:10303c0001003a000628ef000d0009000000000016
:10304c000001eb0040002000905f8800c0012000d0
:10305c00b05f880062030900000000000000060059
:10306c005a7e00005a180000185a00007e5a0000c0
:10307c00427e00005a180000185a00007e420000e0
:10308c00814200002424000024240000428100001e
:10309c00814200003c000000003c00004281000026
:1030ac000000000000240000995a0000ff000000fe
:1030bc008000000000c00000c0fc0000fefc00000e
:1030cc000101000001030000c7ff0000ff7f0000aa
:1030dc008080000080c00000e3ff0000fffe0000c5
:1030ec000100000000030000033f00007f3f0000d0
:1030fc0000000000fe20000020f80000e0000000ae
:10310c000000000018fe0000071f00001f00000058
:10311c0000000000187f0000e0f80000f80000003c
:10312c00000000007f040000041f000007000000e6
:10313c00183c00007efe00007e3c000010100000d9
:10314c0000000000183c00007e7e00006a7a00003f
:10315c0018bc0000feff0000b5ff0000b5fd00002c
:10316c00183c00005a18000018180000183c000009
:10317c00f0e00000f0b800001d0e00000408000094
:10318c000020000041ff0000ff4100002000000073
:10319c00080400000e1d0000b8f00000e0f0000074
:1031ac003c18000018180000185a00003c180000c9
:1031bc001020000070b800001d0f0000070f000069
:1031cc000004000082ff0000ff82000004000000e9
:1031dc000f0700000f1d0000b87000002010000049
:1031ec00007c0000527c0000505000005000000099
:1031fc0000000000004000007e0200000000000003
:10320c00001c0000141400003e1400001c00000000
:10321c00001c000014140000141400001c0000001a
:10322c00007e0000404800004c4e00000c080000de
:10323c001824000042810000182400004281000084
:10324c00007e00004224000018180000181800002e
:10325c008142000024180000814200002418000064
:10326c000000000000000000000000000000000052
:10327c000808000008080000080000000800000012
:10328c0014140000140000000000000000000000f6
:10329c00141400003e1400003e1400001400000042
:1032ac00083c00000a1c0000281e0000080000005a
:1032bc000626000010080000043200003000000058
:1032cc00040a00000a0400002a1200002c0000006e
:1032dc0008080000080000000000000000000000ca
:1032ec0008040000020200000204000008000000b4
:1032fc000810000020200000201000000800000032
:10330c00082a00001c0800001c2a0000080000000d
:10331c0000080000083e0000080800000000000043
:10332c00000000000000000008080000040000007d
:10333c0000000000003e0000000000000000000043
:10334c000000000000000000000000000800000069
:10335c000020000010080000040200000000000023
:10336c001c220000322a0000262200001c00000053
:10337c00080c000008080000080800001c000000f1
:10338c001c22000020180000040200003e00000077
:10339c003e20000010180000202200001c0000003d
:1033ac0010180000141200003e1000001000000065
:1033bc003e0200001e200000202200001c00000025
:1033cc0038040000021e0000222200001c00000035
:1033dc003e2000001008000004040000040000005f
:1033ec001c220000221c0000222200001c000000f5
:1033fc001c220000223c0000201000000e000000e7
:10340c0000000000080000000800000000000000a0
:10341c000000000008000000080800000400000084
:10342c001008000004020000040800001000000056
:10343c00000000003e0000003e0000000000000004
:10344c000408000010200000100800000400000018
:10345c001c220000100800000800000008000000fa
:10346c001c2200002a3a00001a0200003c00000056
:10347c0008140000222200003e220000220000005e
:10348c001e220000221e0000222200001e0000004e
:10349c001c22000002020000022200001c0000009e
:1034ac001e22000022220000222200001e0000002a
:1034bc003e020000021e0000020200003e0000005e
:1034cc003e020000021e000002020000020000008a
:1034dc003c02000002020000322200003c0000000e
:1034ec0022220000223e00002222000022000000c6
:1034fc001c08000008080000080800001c00000060
:10350c002020000020200000202200001c000000d1
:10351c00221200000a0600000a120000220000001d
:10352c000202000002020000020200003e00000045
:10353c00223600002a2a000022220000220000006d
:10354c0022220000262a0000322200002200000065
:10355c001c22000022220000222200001c0000007d
:10356c001e220000221e00000202000002000000c9
:10357c001c220000222200002a1200002c00000055
:10358c001e220000221e00000a1200002200000071
:10359c001c220000021c0000202200001c00000065
:1035ac003e080000080800000808000008000000a1
:1035bc002222000022220000222200001c00000017
:1035cc002222000022220000221400000800000029
:1035dc0022220000222a00002a36000022000000cd
:1035ec002222000014080000142200002200000017
:1035fc002222000014080000080800000800000047
:10360c003e20000010080000040200003e000000f4
:10361c003e06000006060000060600003e00000004
:10362c000002000004080000102000000000000050
:10363c003e30000030300000303000003e00000012
:10364c000000000008140000220000000000000030
:10365c000000000000000000000000003e00000020
:10366c00000000000000000000000000000000004e
:10367c00000000001c2000003c2200003c00000068
:10368c00020200001a260000222200001e00000088
:10369c00000000001c020000022200001c000000c0
:1036ac00202000002c320000222200003c000000f0
:1036bc00000000001c2200003e0200001c00000064
:1036cc0018240000040e0000040400000400000094
:1036dc00003c0000222200003c2000001c000000e6
:1036ec00020200001a260000222200002200000024
:1036fc0000080000000c0000080800001c0000007e
:10370c001000000018100000101200000c00000047
:10371c0002020000120a0000060a0000120000005b
:10372c000c08000008080000080800001c0000003d
:10373c0000000000162a00002a2a00002a000000bf
:10374c00000000001a2600002222000022000000c7
:10375c00000000001c220000222200001c000000bf
:10376c00000000001e2200001e02000002000000eb
:10377c00000000002c3200003c2000002000000063
:10378c00000000001a2600000202000002000000e7
:10379c00000000001c0200001c2000001e000000a5
:1037ac00040400000e0400000424000018000000b3
:1037bc000000000022220000223200002c00000039
:1037cc00000000002222000022140000080000006b
:1037dc000000000022220000222a00001400000039
:1037ec000000000022140000081400002200000059
:1037fc0000000000222200003c2000001c00000001
:10380c00000000003e100000080400003e00000014
:10381c003008000008040000080800003000000018
:10382c000608000008100000080800000600000050
:10383c00080800000800000008080000080000004c
:10384c0000080000003e000000080000000000001e
:10385c0000000000201c000002000000000000001e
:10386c000000fa000002eb009440880015003700bd
:10387c00954080009440800046c3280066427a0040
:10388c000403fb0085824200648220000482420013
:10389c00060a78009540800094408000c6c5280038
:1038ac0066427a000403fb0085824200e48e20000d
:1038bc0004824200060a7800944080000402e8006a
:1038cc00944088009540800034062000848f52007c
:1038dc00e7ff34000002eb000440880014002000d5
:1038ec001440880074618400a440880074618400d2
:1038fc004440880074618400544088002461840032
:10390c00b4408800246184006440880024618400f1
:10391c00744088000002eb00844088000002eb0039
:10392c00c44088000002eb00d44088000002eb0089
:10393c00e44088000002eb00944088000000eb009b
:10394c004e000700d5508000545a2a00848f520034
:10395c0048003a002000200048000700d4508000a6
:10396c00444088004000200044000700d4508000f0
:10397c00544088006000200040000700d4508000b4
:10398c0064408800800020003c000700d450800078
:10399c0074408800a000200038000700d45080003c
:1039ac0004408800c000200034000700d450800080
:1039bc0014408800e000200030000700d450800044
:1039cc008440880044012000e44088000f00370048
:1039dc00e5408000e440800004824200040078004e
:1039ec0026000700e440800074025200d55080008d
:1039fc00040342006482200004024300050a78009c
:103a0c00e44080000402e800e4408800e5408000c7
:103a1c0074072000848f5200edff360084072000cd
:103a2c00e44088000f003700e5408000e44080004f
:103a3c00048242000400780010000700e44080007b
:103a4c008407b100d550800004034200e48e2000ae
:103a5c0004024300050a7800e44080000402e800f8
:103a6c00e4408800e5408000b40d2000848f5200b3
:103a7c00edff36000080fa00000006000400fa009a
:103a8c0010079800f40720000442780004407800e6
:103a9c0032e0b70005e02f001e029000048f4200b8
:103aac001e0278001402ba00d450880000000000f6
:103abc00053b80000400280004826200e00f5200e5
:103acc00fbff3a000080fa00000006000600fa0036
:103adc00100798002107980044002400043b88003c
:103aec00f4072000044278000440780032e0b7006c
:103afc0005e02f001e029000048f42001e02780089
:103b0c00ae029000050abb000500fc005405200025
:103b1c00343b8800a40a2000343b880061e7a800ed
:103b2c00000000000000000000000000053b8000c9
:103b3c000400280004826200e00f5200fbff3a00f0
:103b4c000042eb000440780032e0b7000080fa003d
:103b5c00000006000200fa00000f78001e02780038
:103b6c0024418800170037000002eb00e440880075
:103b7c00090037000000000015118000042020000f
:103b8c0004826200e00f5200fbff3a00e440800028
:103b9c000402e800e4408800e540800074b5210090
:103bac00848f5200f3ff36002441800014427800c9
:103bbc000402fb0024118800244180000402e80068
:103bcc00244188002441800014427800e04f5200c8
:103bdc00e5ff3a000002eb00e44088000080fa00a8
:103bec00000006000000fa0080c62800d9ff07007c
:103bfc0080c62800d7ff0700a0ce2800d5ff0700fd
:103c0c00a0d12800d3ff070040d32800d1ff070024
:103c1c00e0d42800cfff0700a0d62800cdff070076
:103c2c0060d82800cbff070080da2800c9ff070006
:103c3c00a0dc2800c7ff070020e02800c5ff070014
:103c4c0030e32800c3ff0700e0e52800c1ff0700b0
:103c5c0040e72800bfff0700a0e82800bdff0700d1
:103c6c0000ea2800bbff070060eb2800b9ff070043
:103c7c00c0ec2800b7ff070030ee2800b5ff0700a6
:103c8c0090f12800b3ff070070f32800b1ff070084
:103c9c00f0f42800afff07000080fa0000000600d7
:103cac000000fa0080c62800aaff070080c6280082
:103cbc00a8ff0700a0ce2800a6ff0700f0f42800fc
:103ccc00a4ff07000080fa00000006003600f80090
:103cdc00809fbe00829fbe00849fbe00869fbe0058
:103cec00881f78003400f80000002000a001880034
:103cfc006a00fa009540800024062000848f520050
:103d0c000200340034062000944088009640800065
:103d1c003411800004427800659b2000850243002a
:103d2c00844a78009840800095408000649b200075
:103d3c0004824200144278000402fb000400780064
:103d4c00f8f107000002780004427800659b20001f
:103d5c0085024400844a780095408000649b2000d2
:103d6c000482420014427800ed4f52004b023a009c
:103d7c000002eb00040f78000002eb00e440880026
:103d8c0012003700e440800084024200c4a82000e6
:103d9c00048242001402780084007800609b2000aa
:103dac0018f2070000027800140798001e02900019
:103dbc00e00f520002003200e4408000040f780053
:103dcc00e44080000402e800e4408800e440800005
:103ddc00f00f5200ebff3600609b20005dff0700e8
:103dec009e1f780054f52800841f78002bf20700e2
:103dfc00e48757001e027800cfa2de0006012000e7
:103e0c0007002000860f5200878f5a0005023e00e3
:103e1c000460010010003700140037001300370055
:103e2c00cd003700cc0037001e0137001d013700d4
:103e3c006f01370073013700770137007b013700c2
:103e4c007f0137008101370083013700870137007c
:103e5c00db013700de013700f0f528003dff0700dd
:103e6c000002eb00c4408800fe0137000002eb00aa
:103e7c00e44088000c003700e6408000e4408000fd
:103e8c00e5024200649b2000048242001442780048
:103e9c00659b200085024300844a7800e440800042
:103eac000402e800e4408800e5408000540420004f
:103ebc00848f520007003e00e4408000e402420080
:103ecc00649b20000482420014427800e04f5200b0
:103edc00e9ff3a00e44080008482e900649b200002
:103eec00848242000042eb00844a78000440800047
:103efc00e10f520003003a001e027800e10f52005d
:103f0c000600320014408000e10f520044003a00d9
:103f1c001e027800e20f520041003a00b20020006d
:103f2c00619b2000c0a12000a5f10700c0a12000ca
:103f3c009cf107000002780084027800c4a12000e4
:103f4c0004824200d2002000c1c628000400780080
:103f5c007bf107001e027800e10f520016003a00b8
:103f6c000002eb00244088000002eb009440880023
:103f7c000d0037009540800096408000c4a12000c1
:103f8c0004024300144278000403fb0085824200c3
:103f9c006482200004824200060a7800944080006b
:103fac000402e8009440880095408000340620000c
:103fbc00848f5200efff34001e027800e20f520093
:103fcc009f013a000002eb00344088000002eb0035
:103fdc00944088000d00370095408000964080008a
:103fec00c4a1200004024300144278000403fb0027
:103ffc0085824200e48e200004824200060a78008a
:10400c00944080000402e8009440880095408000b1
:10401c0034062000848f5200efff340091013700ea
:10402c0004408000e00f520003003a001e027800aa
:10403c00e10f52000600320014408000e00f5200e5
:10404c0081013a001e027800e20f520080013a0012
:10405c00609b200053f10700000278008402780076
:10406c00649b200004824200d2002000c1c62800bc
:10407c000400780032f107006400470084f928003e
:10408c000c00090034587800f10247005800090070
:10409c00805aeb0064024700619b2000040078000a
:1040ac0035f107001e027800e10f520013003a00b0
:1040bc000002eb00944088000c0037009540800013
:1040cc009440800004024700444290000403fb002b
:1040dc00858242006482200004824200060a780035
:1040ec00944080000402e8009440880095408000d1
:1040fc0034062000848f5200f0ff34001e0278003a
:10410c00e20f520054013a000002eb009440880088
:10411c000c0037009540800094408000040247005a
:10412c00444290000403fb0085824200e48e200090
:10413c0004824200060a7800944080000402e800e1
:10414c00944088009540800034062000848f5200f3
:10415c00f0ff34004301370072002000619b200007
:10416c0020a8200016f107000002eb00e4408800b4
:10417c0012003700e44080008402420004ab2000af
:10418c0004824200140278008400780020a82000e9
:10419c001cf1070000027800140798001e02900022
:1041ac00e00f520002003200e4408000044188001d
:1041bc00e44080000402e800e4408800e440800011
:1041cc00e70f5200ebff3600044180000500200091
:1041dc007600200007002000860f5200878f5a00bf
:1041ec0021003e0004600100070037000900370081
:1041fc000b0037000d0037000f003700110037009f
:10420c00130037001500370024618400b440880087
:10421c001700370094618400b44088001400370004
:10422c0034618400b440880011003700446184007c
:10423c00b44088000e00370054618400b4408800fc
:10424c000b00370064618400b4408800080037001c
:10425c0074618400b44088000500370084618400d8
:10426c00b44088000200370024618400b440880008
:10427c001e027800e30f520002003a00b4408000a6
:10428c00644088001e027800e40f520002003a00dd
:10429c00b4408000744088000002eb00040f7800ea
:1042ac00f000370072002000619b200020a8200045
:1042bc00c3f007000002eb00e44088001200370056
:1042cc00e44080008402420004ab200004824200df
:1042dc00140278008400780020a82000c9f00700a0
:1042ec0000027800140798001e029000e00f5200a4
:1042fc0002003200e440800004418800e440800069
:10430c000402e800e4408800e4408000e70f52001b
:10431c00ebff3600044180000500200076002000f1
:10432c0007002000860f5200878f5a0021003e00a4
:10433c000460010007003700090037000b0037004c
:10434c000d0037000f003700110037001300370045
:10435c001500370024618400a44088001700370042
:10436c0094618400a44088001400370034618400f8
:10437c00a44088001100370044618400a4408800e8
:10438c000e00370054618400a44088000b003700f5
:10439c0064618400a44088000800370074618400c4
:1043ac00a44088000500370084618400a440880084
:1043bc000200370024618400a44088001e027800ab
:1043cc00e50f520002003a00a440800044408800ef
:1043dc001e027800e60f520002003a00a440800052
:1043ec00544088000002eb00040f78009d00370059
:1043fc000002eb00044088001400200024408800d8
:10440c00980037000002eb001440880014002000d4
:10441c0034408800930037001400200004408800ca
:10442c000002eb00244088008e00370014002000ae
:10443c00144088000002eb003440880089003700eb
:10444c001400200084408800860037000002eb0036
:10445c00844088008300370090f62800bdfd0700db
:10446c0014002000c44088007e003700c440800047
:10447c00e10f52007a003a00515a2a000000eb007a
:10448c0092fd07004440800084007800200020004a
:10449c008efd07005440800084007800400020000e
:1044ac008afd0700644080008400780060002000d2
:1044bc0086fd070074408000840078008000200096
:1044cc0082fd07000440800084007800a0002000da
:1044dc007efd07001440800084007800c00020009e
:1044ec007afd07008440800084007800e000200002
:1044fc0076fd070044012000e44088000f003700df
:10450c00e440800074025200840242006482200065
:10451c00048242001402780084027800e440800097
:10452c0004024200850078000400780067fd070053
:10453c00e44080000402e800e4408800e54080008c
:10454c0074072000848f5200edff36008407200092
:10455c00e44088000f003700e44080008407b1007d
:10456c0084024200e48e200004824200140278008f
:10457c0084027800e4408000040242008500780048
:10458c000400780051fd0700e44080000402e800bc
:10459c00e4408800e5408000b40d2000848f520078
:1045ac00edff360060f728006afd07000002eb0003
:1045bc00c44088000002eb00040f7800290037008b
:1045cc000002eb00e440880086fd07002500370060
:1045dc0080f828005ffd0700412321000000eb005c
:1045ec003afd07000002eb00044088001400200094
:1045fc001440880014002000244088000002eb00c6
:10460c003440880096fc070076fd07000042eb0062
:10461c000440780032e0b7000002eb00040f780091
:10462c00100037000002eb00c44088000002eb00d1
:10463c00040f78000002eb00e4408800090037000a
:10464c0000000000070037000000000005003700e4
:10465c0000000000030037000000000001003700dc
:10466c0000000000420620008000eb00609b200050
:10467c00baef0700620620008000eb00c0a120000a
:10468c00b6ef07000002eb00944088000002eb003c
:10469c00e44088008560a900040037009440800045
:1046ac000402e800944088008560a9000080fa00ac
:1046bc003400f9004f0478004f03be004f02be00d7
:1046cc004f01be004f00be003600f900004006004e
:1046dc000000fa000002eb00243a88000000000001
:1046ec00153a80000402200004826200e00f5200a0
:1046fc00fbff32000082eb00641988000002eb0023
:10470c0004168800640020004416880094012000e0
:10471c00441188000002eb000411880004442000be
:10472c001411880021e2a8002342a8009560a8007b
:10473c00141180000460a0000470a1001411880002
:10474c008560a9004405800004c0a10004d0a0002d
:10475c0004e0a1004405880000242400f10020009e
:10476c00a90007004efd07003dfc07000042eb00ce
:10477c000440780032e0b7001df60700ffff370059
:020000040000fa
:10478c00600b00009a000000000000000008000010
:10479c001c020000000000001c0a0000a400000025
:1047ac0002000000202020002020200020202000db
:1047bc00202020000000000000000000000000008d
:1047cc0000000000000000000000000000000000dd
:1047dc0000000000000000000000000000000000cd
:1047ec0000000000000000000000000000000000bd
:1047fc0000000000000000000000000000000000ad
:10480c00000000000000000000000000000000009c
:10481c00000000000000000000000000000000008c
:10482c0000000000000000000000000031323300e6
:10483c003435360037006a008c798c007b8c800014
:10484c008c858c008a8c8f008c948c00998c9e00ab
:10485c008ca38c00a88cad008cb38c00bb8cbf00df
:10486c008cc38c00ca8c000000d28c00d58cd80074
:10487c008cdb8c00de8ce1008ce48c00e78c00007f
:10488c004a0c00000600000000000000240c000090
:10489c0026000000020000004b0c0000004b0c0036
:1048ac0009000000000200004d0c0000004d0c003f
:1048bc000e020100000000000000000000000000db
:1048cc000602020000000000240c0000fa0b00009d
:1048dc002a00000002000000303132003334350071
:1048ec003637380039414200434445004600300019
:1048fc0031323300343536003738390061626300a9
:10490c006465660000286e00756c6c002900000060
:10491c00c00a0000a000000002000000010000001e
:10492c000000000000000a00000000000000000071
:10493c00006400000000000000000000e80300001c
:10494c000000000000001000270000000000000024
:10495c0000a08600010000000000000040420f0093
:10496c00000000000000800096980000000000008d
:10497c000000e100f50500000000000000ca9a00ec
:10498c003b00000000000000e40b5400020000009b
:10499c000000e80076481700000000000010a50099
:1049ac00d4e8000000000000a0724e0018090000be
:1049bc00000040007a10f3005a0000000080c6008e
:1049cc00a47e8d000300000000c16f00f28623005e
:1049dc00000000008a5d780045630100000064005f
:1049ec00a7b3b600e00d000000e889000423c7005f
:1049fc008a000000500c00000200000002000000c1
:084a0c000100000000000000a1
:020000040000fa
:104a1400f03fb1000180b10006003500ee0309004b
:104a240000000000403fb1000180b100fbff3d00e9
:104a34001000b000203fb0000200350000800900e3
:084a4400000000000000060064
:020000040000fa
:0200000400fffb
:04fc000034120000ba
:020000040000fa
:0200000401f009
:04000800fdff0000f8
:020000040000fa
:0200000401f009
:04000c00fbff0000f6
:020000040000fa
:0200000401f009
:04001000fdff0000f0
:020000040000fa
:0200000401f009
:040014007fff00006a
:020000040000fa
:0200000401f009
:04001800f4ff0000f1
:020000040000fa
:0200000401f009
:040020003fff00009e
:00000001FF
