:020000040000fa
:080000000002040000000000f2
:020000040000fa
:100008009402000094020000940200009402000090
:100018009402000094020000940200009402000080
:100028009402000094020000940200009402000070
:100038009402000094020000940200009402000060
:10004800940200009402000094020000a61500002b
:100058009402000094020000940200009402000040
:100068009402000094020000940200009402000030
:100078009402000094020000940200009402000020
:100088009402000094020000940200009402000010
:100098009402000094020000940200009402000000
:1000a80094020000940200009402000094020000f0
:1000b80094020000940200009402000094020000e0
:1000c80094020000940200009402000094020000d0
:1000d80094020000940200009402000094020000c0
:1000e80094020000940200009402000094020000b0
:1000f80094020000940200009402000094020000a0
:10010800940200009402000094020000940200008f
:10011800940200009402000094020000940200007f
:10012800940200009402000094020000940200006f
:10013800940200009402000094020000940200005f
:10014800940200009402000094020000940200004f
:10015800940200009402000094020000940200003f
:10016800940200009402000094020000940200002f
:10017800940200009402000094020000940200001f
:10018800940200009402000094020000940200000f
:1001980094020000940200009402000094020000ff
:1001a80094020000940200009402000094020000ef
:1001b80094020000940200009402000094020000df
:1001c80094020000940200009402000094020000cf
:1001d80094020000940200009402000094020000bf
:1001e80094020000940200009402000094020000af
:0801f8009402000094020000d3
:020000040000fa
:10020800940200009402000094020000940200008e
:10021800940200009402000094020000940200007e
:10022800940200009402000094020000940200006e
:10023800940200009402000094020000940200005e
:10024800940200009402000094020000a615000029
:10025800940200009402000094020000940200003e
:10026800940200009402000094020000940200002e
:10027800940200009402000094020000940200001e
:10028800940200009402000094020000940200000e
:1002980094020000940200009402000094020000fe
:1002a80094020000940200009402000094020000ee
:1002b80094020000940200009402000094020000de
:1002c80094020000940200009402000094020000ce
:1002d80094020000940200009402000094020000be
:1002e80094020000940200009402000094020000ae
:1002f800940200009402000094020000940200009e
:10030800940200009402000094020000940200008d
:10031800940200009402000094020000940200007d
:10032800940200009402000094020000940200006d
:10033800940200009402000094020000940200005d
:10034800940200009402000094020000940200004d
:10035800940200009402000094020000940200003d
:10036800940200009402000094020000940200002d
:10037800940200009402000094020000940200001d
:10038800940200009402000094020000940200000d
:1003980094020000940200009402000094020000fd
:1003a80094020000940200009402000094020000ed
:1003b80094020000940200009402000094020000dd
:1003c80094020000940200009402000094020000cd
:1003d80094020000940200009402000094020000bd
:1003e80094020000940200009402000094020000ad
:0803f8009402000094020000d1
:020000040000fa
:10040000afb520000edf20000e01880000000000c4
:1004100000012000200288000c000700c0ad210070
:100420000100200011000700000020000000e00093
:10043000020032000000020000000000801a0200ea
:10044000000000000040da000000fe004440a90067
:10045000003d20000000e00003003200000020000a
:10046000a00188004440a800000006009101880017
:10047000800078000000eb0015003700e2804000ab
:1004800032a0b4009101ba00e280400032a0b40072
:100490009102ba00e280400032a0b4000002eb00fa
:1004a000472bde00f507b200602ce10004003a00a3
:1004b0000059eb008301e900fdff3e000400370016
:1004c0006128e100010032000082eb000400070017
:1004d0001101ba000200e000e8ff3a000000060047
:1004e0003159ba008301e9000c0032002159ba00e9
:1004f0008301e900080032000400e00003003a0034
:10050000e280400032a0b400f5ff370011d9ba00f4
:100510008301e900faff3a008100e800e180400031
:1005200032a0b400000006000040da000000fe0027
:100530000002780002003700315a78000201e90019
:10054000e00f5100fcff3a000000060000027800b6
:1005500002003700015a78000201e900e00f510063
:10056000fcff3a00000006000002780084027800d8
:10057000050278000043eb00b44f1300fbff3a0084
:1005800031427800845a7800e04f5200fcff3a0074
:1005900000000600000278008042eb00b4cf120099
:1005a000fdff3a000080ea00000042000000060063
:1005b00000027800060037000201e90031437800ac
:1005c000065a780084027800e04f5300060032009b
:1005d00084027800e00f5100f7ff3a000200370074
:1005e000805aeb000201e900e00f5100fcff3a00e5
:1005f00000000600889fbe000004be000b0037000c
:1006000009007800e3ff0700000178000800be0041
:100610001e000700e00f50000a0032000800e8004a
:100620009900fb000a00070000047800e00f540066
:10063000040032000042eb00984f1200f0ff3a0035
:100640000004eb00080078004f04be000000060024
:10065000881f78000002eb006103b80006047800f0
:100660006121b80006004100e842790081cf5200c4
:10067000040032000402e800e0cf5200f8ff3a0024
:100680000000eb004f047800000006000b0037006c
:1006900030427800e04f5200030032000201e900ce
:1006a000b14f5200050032000480fb0095427800f3
:1006b0008582fb00050050000000060081027800e2
:1006c000e00f5100f2ff3a0002007800000006003f
:020000040000fa
:1006d00013000000030000000200000011000000f1
:1006e00010000000010000000000000012000000e7
:1006f00020200000202000002020000020200000fa
:100700002020000020200000504900004344000049
:1007100052450000414d00002049000049200000e2
:100720006279000020460000314300004a4e00007c
:1007300020200000616c0000616900006e2e000046
:10074000504900004344000052450000414d000064
:1007500020490000492000000d0a00003e00000072
:100760002020000020200000202000002020000089
:100770002020000020200000000d0000003c0000b0
:10078000743100003e0000003c740000323e000066
:10079000003c0000633100003e0000003c630000ac
:1007a000323e0000003c0000623100003e000000cc
:1007b0003c620000323e0000003c0000733100004b
:1007c0003e0000003c730000323e0000003c000090
:1007d000663100003e0000003c660000323e000032
:1007e000003c000062610000723e0000003c00001e
:1007f000736d000070740000653e0000003c000056
:10080000773e00000079000065730000003c0000a6
:10081000686500006c7000003e0000003c72000043
:1008200065730000657400003e00000077680000fa
:100830000079000065000000637900000067000097
:10084000720000006d610000007200006500000091
:10085000626c0000006200006b0000002a2a0000a9
:1008600020200000205000004943000044520000b6
:10087000454100004d20000049490000205600007d
:1008800069640000656f000020470000656e00008d
:1008900065720000617400006f7200002062000049
:1008a0007920000046310000434a00004e2000003d
:1008b000202000002a2a00000d0000003c740000e7
:1008c000313e00006d79000074650000787400000e
:1008d000203d0000207400006578000074200000b6
:1008e0006c6900006e650000203100000d00000002
:1008f0003c740000323e00006d7900007465000019
:1009000078740000203d000020740000657800002d
:10091000742000006c6900006e6500002032000049
:100920000d0000003c630000313e000078780000bc
:10093000203d0000206300006f6c00006f7200001b
:100940002074000065780000742000006c690000cd
:100950006e650000203100000d0000003c630000c7
:10096000323e000078780000203d00002063000047
:100970006f6c00006f72000020740000657800004a
:10098000742000006c6900006e65000020320000d9
:100990000d0000003c620000313e0000787800004d
:1009a000203d0000206300006f6c00006f720000ab
:1009b00020620000616300006b670000726f00003e
:1009c000756e0000642000006c6900006e65000018
:1009d000203100000d0000003c620000323e0000ab
:1009e00078780000203d0000206300006f6c00005c
:1009f0006f72000020620000616300006b670000fe
:100a0000726f0000756e0000642000006c690000c9
:100a10006e650000203200000d000000436f0000f2
:100a20006c6f0000727300002078000078200000d6
:100a30003a2000006d6100003d6d0000616700001c
:100a4000656e0000746100002c20000077680000d3
:100a50003d2000007768000069740000652c0000ec
:100a600020790000653d0000796500006c6c000095
:100a70006f7700002c200000626b00003d620000d8
:100a80006c610000636b00000d000000436f00000c
:100a90006c6f000072730000207800007820000066
:100aa0003a200000637900003d6300007961000096
:100ab0006e2c000020720000653d000020720000d6
:100ac000656400002c200000677200003d67000094
:100ad00072650000656e00002c200000626c000052
:100ae0003d6200006c750000650d000000450000cf
:100af000786500006d7000006c650000203a000011
:100b0000203c0000633100003e63000079200000bb
:100b10003d200000636f00006c6f00007220000039
:100b20007465000078740000206c0000696e00009d
:100b3000652000003120000063790000616e000034
:100b40000d0000003c730000313e0000203d00001d
:100b500020730000637200006f6c00006c200000c6
:100b60006c6900006e650000203100000d0000007f
:100b70003c730000323e0000203d00002073000066
:100b8000637200006f6c00006c2000006c69000054
:100b90006e650000203200000d0000003c66000081
:100ba000313e0000203d0000206c0000696e000016
:100bb00065200000312000006669000078650000b3
:100bc000642000000d0000003c660000323e000082
:100bd000203d0000206c0000696e000065200000d0
:100be0003220000066690000786500006420000083
:100bf0000d0000003c620000617200003e20000019
:100c00003d200000636f00006c6f000072730000f5
:100c10002062000061720000732000000d000000df
:100c20003c7300006d700000746500003e20000001
:100c30003d200000736d000070740000652000000e
:100c40006261000072730000200d0000003c000093
:100c5000773e0000203d0000207700007269000010
:100c600074650000206100006c6c000020690000c9
:100c70006e2000006d6500006d6f0000727900004d
:100c80002c2000006e6500006564000020740000e8
:100c90006f200000636f00006e6600006972000044
:100ca0006d20000077690000746800002079000062
:100cb00065730000200d0000003c0000726500001c
:100cc00073650000743e0000203d000020720000ab
:100cd0006573000065740000207400006f20000040
:100ce0006f72000069670000696e0000616c0000af
:100cf000200d0000003c0000686500006c700000e2
:100d00003e2000003d200000746800006973000070
:100d1000206d0000657300007361000067650000ce
:100d2000200d00000020000020200000200d000009
:100d3000004300006f6d00006d6100006e640000f4
:100d40003f0d0000005700005249000054450000cc
:100d50002079000065730000203f00000d000000b6
:100d60002a2a00002a20000057520000495400009f
:100d7000452000004f4b0000202a00002a2a0000d6
:100d80000d0000002a2a00002a2000005245000021
:100d900053450000542000002a2a00002a200000a9
:100da0000d00000020200000202000002020000076
:100db0002020000020200000202000000000000073
:100dc0000000000000000000000000000000000023
:100dd0000000000000000000000000000000000013
:100de0000000000000000000000000000000000003
:100df00000000000000000000000000000000000f3
:100e000000000000000000000000000000000000e2
:100e100000000000000000000000000000000000d2
:100e200000000000000000000000000000000000c2
:100e300000000000000000000000000000000000b2
:100e400000000000000000000000000000000000a2
:100e50000000000000000000000000000000000092
:100e60000000000000000000000000000000000082
:020000040000fa
:100e700000002000605a8800705a8800400020005e
:100e8000905a8800ca02a900af01090000000000c2
:100e90004c2bec00ca02a8004a0009000000000028
:100ea000ca02a900af01090000000000ca02a800a0
:100eb0004600090000000000582bef00582bec0002
:100ec00000000000582bec00ca02a900b001090084
:100ed00000000000ca02a8004a000900000000004b
:100ee000ca02a900b001090000000000ca02a8005f
:100ef0004a000900582bec00ca02a900b001090001
:100f000000000000ca02a8004a000900000000001a
:100f1000ca02a9002200090000000000ca02a800bd
:100f2000d8010900582bec00ca02a90022000900d0
:100f300000000000ca02a800d8010900000000005b
:100f4000ca02a9002200090000000000ca02a8008d
:100f5000d8010900582bec00ca02a90022000900a0
:100f600000000000ca02a800d8010900000000002b
:100f7000ca02a9002200090000000000ca02a8005d
:100f8000d8010900582bec00ca02a9006002200019
:100f9000b05a8800400d020000000000ca02a900fb
:100fa0004600090000000000580e0200000000008a
:100fb000ca02a90000408000005a8800000000001a
:100fc00000000000a809020000000000ca02a900f9
:100fd000a0002000b05a8800400d02000000000070
:100fe000ca02a90000092000b05a88005c0d020066
:100ff00000000000ca02a90030012000b05a880099
:10100000bc0d020000000000ca02a900a0002000e0
:10101000b05a8800400d020000000000ca02a9007a
:101020004600090000000000e40e0200000000007d
:10103000ca02a90010408000105a88000000000079
:1010400000000000740b020000000000ca02a900aa
:10105000a0012000b05a8800400d020000000000ee
:10106000ca02a9002200090000000000ca02a8006c
:10107000d801090000000000ca02a90022000900ee
:1010800000000000ca02a800d8010900000000000a
:10109000ca02a9002200090000000000ca02a8003c
:1010a000d801090000000000ca02a90022000900be
:1010b00000000000ca02a800d801090000000000da
:1010c000ca02a9002200090000000000ca02a8000c
:1010d000d801090000000000ca02a900b0010900ff
:1010e00000000000ca02a8004a0009000000000039
:1010f000ca02a900b001090000000000ca02a8004d
:101100004a00090000000000ca02a900b00109005d
:1011100000000000ca02a8004a0009000000000008
:10112000ca02a900b001090000000000ca02a8001c
:101130004a00090000000000ca02a900b00109002d
:1011400000000000ca02a8004a00090000000000d8
:10115000ca02a9002200090000000000ca02a8007b
:10116000d801090000000000ca02a90022000900fd
:1011700000000000ca02a800d80109000000000019
:10118000ca02a9002200090000000000ca02a8004b
:10119000d801090000000000ca02a90022000900cd
:1011a00000000000ca02a800d801090000000000e9
:1011b000ca02a9002200090000000000ca02a8001b
:1011c000d801090000000000fe0109000000000035
:1011d000ca02a90050022000b05a8800400d020047
:1011e00000000000ca02a90046000900000000003b
:1011f000580e020000000000ca02a9000040800052
:10120000005a88000000000000000000a809020049
:1012100000000000ca02a900a0002000b05a880007
:10122000400d020000000000ca02a90000092000d1
:10123000b05a88005c0d020000000000ca02a9003c
:1012400030012000b05a8800bc0d020000000000f0
:10125000ca02a900a0002000b05a8800400d020078
:1012600000000000ca02a9004600090000000000ba
:10127000e40e020000000000ca02a9001040800035
:10128000105a88000000000000000000740b0200eb
:1012900000000000ca02a900a0012000b05a880086
:1012a000400d020000000000ca02a9004800090029
:1012b00000000000ca02a800b201090000000000fe
:1012c000ca02a9002200090000000000ca02a8000a
:1012d000d801090000000000ca02a900220009008c
:1012e00000000000ca02a800d801090000000000a8
:1012f000ca02a9002200090000000000ca02a800da
:10130000d801090000000000ca02a900220009005b
:1013100000000000ca02a800d8010900582bec0008
:10132000ca02a9002200090000000000ca02a800a9
:10133000d601090000000000d2fe370000000000c6
:1013400000000000ca02a90004000900000000001b
:10135000520be2000c003a0037002000975a880038
:101360000201e800645a80006f20e1000c003400a4
:1013700000000000045a80006120e1000c003200ef
:101380004e2bec000c003700522bed00000000004b
:10139000000000000000000000000000000000004d
:1013a000000000000000000000000000000000003d
:1013b0000000000000000000000000001100090013
:1013c000000000000eae20000dac20003d027800b1
:1013d000020042001042ba00041f78003d0278006b
:1013e000020042001042ba00041f78003d0278005b
:1013f000020042001042ba00041f78003d0278004b
:10140000020042001042ba00041f78003d0278003a
:10141000020042001042ba00041f7800ca02a8006d
:101420003d027800020042001042ba00041f78001a
:101430003d027800020042001042ba00041f78000a
:101440003d027800020042001042ba00041f7800fa
:101450003d027800020042001042ba00041f7800ea
:101460003d027800020042001042ba00041f7800da
:101470003d027800020042001042ba00041f7800ca
:101480003d027800020042001042ba00041f7800ba
:1014900000052000645a8000400be2000100320089
:1014a0000002eb004222dd00345a880004025000a2
:1014b0000c00090000000000404080001016880069
:1014c00004800900000000000eae20003e027800fb
:1014d00079002000604080000402d100010031004a
:1014e0004040800010168800000000008904e900d8
:1014f000f8ff3a003e02780079002000604080004a
:101500000402d10001003100404080001016880024
:10151000000000008904e900f8ff3a003e0278006c
:1015200079002000604080000402d10001003100f9
:101530004040800010168800000000008904e90087
:10154000f8ff3a003e0278007900200060408000f9
:101550000402d100010031004040800010168800d4
:10156000000000008904e900f8ff3a003e0278001c
:1015700079002000604080000402d10001003100a9
:101580004040800010168800000000008904e90037
:10159000f8ff3a003e0278007900200060408000a9
:1015a0000402d10001003100404080001016880084
:1015b000000000008904e900f8ff3a003e027800cc
:1015c00079002000604080000402d1000100310059
:1015d0004040800010168800000000008904e900e7
:1015e000f8ff3a003e027800790020006040800059
:1015f0000402d10001003100404080001016880034
:10160000000000008904e900f8ff3a003e0278007b
:1016100079002000604080000402d1000100310008
:101620004040800010168800000000008904e90096
:10163000f8ff3a003e027800790020006040800008
:101640000402d100010031004040800010168800e3
:10165000000000008904e900f8ff3a003e0278002b
:1016600079002000604080000402d10001003100b8
:101670004040800010168800000000008904e90046
:10168000f8ff3a003e0278007900200060408000b8
:101690000402d10001003100404080001016880093
:1016a000000000008904e900f8ff3a00345a800085
:1016b0000480090000000000a01b840010168800b0
:1016c0001100090000000000562bed001bff3a003e
:1016d000000006000000000000000000ca02a9008f
:1016e0000400090000000000520be2000c003a0068
:1016f00037002000975a88000201e800645a8000f1
:101700006f20e1000c00340000000000145a80003b
:101710006120e1000c003200502bec000c0037007f
:10172000522bed000000000000000000000000004f
:1017300000000000000000000000000000000000a9
:101740000000000000000000000000000000000099
:101750000000000011000900000000000eb220008f
:101760000db020003d027800020042001042ba0095
:10177000041f78003d027800020042001042ba00c7
:10178000041f78003d027800020042001042ba00b7
:10179000041f78003d027800020042001042ba00a7
:1017a000041f78003d027800020042001042ba0097
:1017b000041f7800ca02a8003d027800020042001f
:1017c0001042ba00041f78003d0278000200420077
:1017d0001042ba00041f78003d0278000200420067
:1017e0001042ba00041f78003d0278000200420057
:1017f0001042ba00041f78003d0278000200420047
:101800001042ba00041f78003d0278000200420036
:101810001042ba00041f78003d0278000200420026
:101820001042ba00041f780000052000645a8000ae
:10183000420be200010032000002eb004222dd0018
:10184000545a8800040250000c00090000000000f7
:10185000504080001016880004800900000000003d
:101860000eb220003e027800790020007040800017
:101870000402d100010031005040800010168800a1
:10188000000000008904e900f8ff3a003e027800f9
:1018900079002000704080000402d1000100310076
:1018a0005040800010168800000000008904e90004
:1018b000f8ff3a003e027800790020007040800076
:1018c0000402d10001003100504080001016880051
:1018d000000000008904e900f8ff3a003e027800a9
:1018e00079002000704080000402d1000100310026
:1018f0005040800010168800000000008904e900b4
:10190000f8ff3a003e027800790020007040800025
:101910000402d10001003100504080001016880000
:10192000000000008904e900f8ff3a003e02780058
:1019300079002000704080000402d10001003100d5
:101940005040800010168800000000008904e90063
:10195000f8ff3a003e0278007900200070408000d5
:101960000402d100010031005040800010168800b0
:10197000000000008904e900f8ff3a003e02780008
:1019800079002000704080000402d1000100310085
:101990005040800010168800000000008904e90013
:1019a000f8ff3a003e027800790020007040800085
:1019b0000402d10001003100504080001016880060
:1019c000000000008904e900f8ff3a003e027800b8
:1019d00079002000704080000402d1000100310035
:1019e0005040800010168800000000008904e900c3
:1019f000f8ff3a003e027800790020007040800035
:101a00000402d1000100310050408000101688000f
:101a1000000000008904e900f8ff3a003e02780067
:101a200079002000704080000402d10001003100e4
:101a30005040800010168800000000008904e90072
:101a4000f8ff3a00545a80000480090000000000aa
:101a5000a01b84001016880011000900000000007f
:101a6000562bed001bff3a000000060000000000ae
:101a700000000000ca02a9000200090000000000e6
:101a80004400090000000000ca02a800582bec0026
:101a9000ac03090000000000562bed00f3ff3a00f4
:101aa000000006000000000000000000ca02a900bb
:101ab00002000900000000000000000043000900cf
:101ac00000000000ca02a800790009000000000020
:101ad000582bec00401b8400101688006800090099
:101ae00000000000b01b8400101688006800090088
:101af00000000000501b84001016880068000900d8
:101b000000000000601b84001016880068000900b7
:101b100000000000701b8400101688006800090097
:101b200000000000801b8400101688006800090077
:101b300000000000901b8400101688006800090057
:101b400000000000a01b840010168800320009006d
:101b50000000000000000000562bed00d1ff3a000d
:101b6000000006000000000000000000ca02a900fa
:101b7000020009000000000000000000430009000e
:101b800000000000ca02a800750009000000000063
:101b9000582bec001008e20002003a00901b840071
:101ba00002003700401b840000000000101688006f
:101bb00064000900000000001008e20002003a0082
:101bc000a01b840002003700b01b8400000000004e
:101bd0001016880064000900000000001008e200f0
:101be00002003a00701b840002003700501b840082
:101bf00000000000101688006400090000000000ca
:101c00001008e20002003a00a01b84000200370026
:101c1000601b8400000000001016880064000900aa
:101c2000000000001008e20002003a00501b84008f
:101c300002003700701b84000000000010168800ae
:101c400064000900000000001008e20002003a00f1
:101c5000a01b840002003700801b840000000000ed
:101c60001016880064000900000000001008e2005f
:101c700002003a00401b840002003700901b8400e1
:101c80000000000010168800680009000000000035
:101c9000a01b84001016880032000900000000001c
:101ca00000000000562bed00aeff3a0000000600d9
:101cb000ca02a80006f720006c8220000eae2000a9
:101cc0000dac20004e0be200040034000428ec00b0
:101cd0004e2bef004c2bef000400370000000000fb
:101ce00000000000000000000000000000000000f4
:101cf0008c057800244080006222b8008b054200e9
:101d0000bb037800433add00861e4200bb03780027
:101d1000433add00861e4200bb037800433add00f3
:101d2000861e4200bb037800433add00861e420057
:101d3000bb037800433add00861e4200bb037800f7
:101d4000433add00861e4200bb037800433add00c3
:101d5000861e4200bb037800433add00861e420027
:101d6000bb037800433add00861e4200bb037800c7
:101d7000433add00861e4200bb037800433add0093
:101d8000861e4200bb037800433add00861e4200f7
:101d9000bb037800603ce10001003a000428ef003a
:101da0000d000900000000000001eb0040002000d1
:101db000905a8800c0012000b05a880062030900d0
:101dc0000000000000000600ca02a80006f720007c
:101dd000ec8e20000eb220000db02000500be2006f
:101de000040034000628ec00502bef004c2bef00d1
:101df00004003700000000000000000000000000a8
:101e000000000000000000008c05780034408000d5
:101e10006222b8008b054200bb037800433add0024
:101e2000861e4200bb037800433add00861e420056
:101e3000bb037800433add00861e4200bb037800f6
:101e4000433add00861e4200bb037800433add00c2
:101e5000861e4200bb037800433add00861e420026
:101e6000bb037800433add00861e4200bb037800c6
:101e7000433add00861e4200bb037800433add0092
:101e8000861e4200bb037800433add00861e4200f6
:101e9000bb037800433add00861e4200bb03780096
:101ea000433add00861e4200bb037800603ce1003f
:101eb00001003a000628ef000d00090000000000b4
:101ec0000001eb0040002000905a8800c001200073
:101ed000b05a8800620309000000000000000600fc
:101ee0005a7e00005a180000185a00007e5a00005e
:101ef000427e00005a180000185a00007e4200007e
:101f000081420000242400002424000042810000bb
:101f1000814200003c000000003c000042810000c3
:101f20000000000000240000995a0000ff0000009b
:101f30008000000000c00000c0fc0000fefc0000ab
:101f40000101000001030000c7ff0000ff7f000047
:101f50008080000080c00000e3ff0000fffe000062
:101f60000100000000030000033f00007f3f00006d
:101f700000000000fe20000020f80000e00000004b
:101f80000000000018fe0000071f00001f000000f6
:101f900000000000187f0000e0f80000f8000000da
:101fa000000000007f040000041f00000700000084
:101fb000183c00007efe00007e3c00001010000077
:101fc00000000000183c00007e7e00006a7a0000dd
:101fd00018bc0000feff0000b5ff0000b5fd0000ca
:101fe000183c00005a18000018180000183c0000a7
:101ff000f0e00000f0b800001d0e00000408000032
:102000000020000041ff0000ff4100002000000010
:10201000080400000e1d0000b8f00000e0f0000011
:102020003c18000018180000185a00003c18000066
:102030001020000070b800001d0f0000070f000006
:102040000004000082ff0000ff8200000400000086
:102050000f0700000f1d0000b870000020100000e6
:10206000007c0000527c0000505000005000000036
:1020700000000000004000007e02000000000000a0
:10208000001c0000141400003e1400001c0000009e
:10209000001c000014140000141400001c000000b8
:1020a000007e0000404800004c4e00000c0800007c
:1020b0001824000042810000182400004281000022
:1020c000007e0000422400001818000018180000cc
:1020d0008142000024180000814200002418000002
:1020e00000000000000000000000000000000000f0
:1020f00008080000080800000800000008000000b0
:102100001414000014000000000000000000000093
:10211000141400003e1400003e14000014000000df
:10212000083c00000a1c0000281e000008000000f7
:1021300006260000100800000432000030000000f5
:10214000040a00000a0400002a1200002c0000000b
:102150000808000008000000000000000000000067
:102160000804000002020000020400000800000051
:1021700008100000202000002010000008000000cf
:10218000082a00001c0800001c2a000008000000ab
:1021900000080000083e00000808000000000000e1
:1021a000000000000000000008080000040000001b
:1021b00000000000003e00000000000000000000e1
:1021c0000000000000000000000000000800000007
:1021d00000200000100800000402000000000000c1
:1021e0001c220000322a0000262200001c000000f1
:1021f000080c000008080000080800001c0000008f
:102200001c22000020180000040200003e00000014
:102210003e20000010180000202200001c000000da
:1022200010180000141200003e1000001000000002
:102230003e0200001e200000202200001c000000c2
:1022400038040000021e0000222200001c000000d2
:102250003e200000100800000404000004000000fc
:102260001c220000221c0000222200001c00000092
:102270001c220000223c0000201000000e00000084
:10228000000000000800000008000000000000003e
:102290000000000008000000080800000400000022
:1022a00010080000040200000408000010000000f4
:1022b000000000003e0000003e00000000000000a2
:1022c00004080000102000001008000004000000b6
:1022d0001c22000010080000080000000800000098
:1022e0001c2200002a3a00001a0200003c000000f4
:1022f00008140000222200003e22000022000000fc
:102300001e220000221e0000222200001e000000eb
:102310001c22000002020000022200001c0000003b
:102320001e22000022220000222200001e000000c7
:102330003e020000021e0000020200003e000000fb
:102340003e020000021e0000020200000200000027
:102350003c02000002020000322200003c000000ab
:1023600022220000223e0000222200002200000063
:102370001c08000008080000080800001c000000fd
:102380002020000020200000202200001c0000006f
:10239000221200000a0600000a12000022000000bb
:1023a0000202000002020000020200003e000000e3
:1023b000223600002a2a000022220000220000000b
:1023c00022220000262a0000322200002200000003
:1023d0001c22000022220000222200001c0000001b
:1023e0001e220000221e0000020200000200000067
:1023f0001c220000222200002a1200002c000000f3
:102400001e220000221e00000a120000220000000e
:102410001c220000021c0000202200001c00000002
:102420003e0800000808000008080000080000003e
:102430002222000022220000222200001c000000b4
:1024400022220000222200002214000008000000c6
:1024500022220000222a00002a360000220000006a
:1024600022220000140800001422000022000000b4
:1024700022220000140800000808000008000000e4
:102480003e20000010080000040200003e00000092
:102490003e06000006060000060600003e000000a2
:1024a00000020000040800001020000000000000ee
:1024b0003e30000030300000303000003e000000b0
:1024c00000000000081400002200000000000000ce
:1024d0000000000000000000000000003e000000be
:1024e00000000000000000000000000000000000ec
:1024f000000000001c2000003c2200003c00000006
:10250000020200001a260000222200001e00000025
:10251000000000001c020000022200001c0000005d
:10252000202000002c320000222200003c0000008d
:10253000000000001c2200003e0200001c00000001
:1025400018240000040e0000040400000400000031
:10255000003c0000222200003c2000001c00000083
:10256000020200001a2600002222000022000000c1
:1025700000080000000c0000080800001c0000001b
:102580001000000018100000101200000c000000e5
:1025900002020000120a0000060a000012000000f9
:1025a0000c08000008080000080800001c000000db
:1025b00000000000162a00002a2a00002a0000005d
:1025c000000000001a260000222200002200000065
:1025d000000000001c220000222200001c0000005d
:1025e000000000001e2200001e0200000200000089
:1025f000000000002c3200003c2000002000000001
:10260000000000001a260000020200000200000084
:10261000000000001c0200001c2000001e00000042
:10262000040400000e040000042400001800000050
:102630000000000022220000223200002c000000d6
:102640000000000022220000221400000800000008
:102650000000000022220000222a000014000000d6
:1026600000000000221400000814000022000000f6
:1026700000000000222200003c2000001c0000009e
:10268000000000003e100000080400003e000000b2
:1026900030080000080400000808000030000000b6
:1026a00006080000081000000808000006000000ee
:1026b00008080000080000000808000008000000ea
:1026c00000080000003e00000008000000000000bc
:1026d00000000000201c00000200000000000000bc
:1026e0000000fa000002eb0094408800150037005b
:1026f00095408000944080008637280066427a002a
:102700000403fb00858242006482200004824200b0
:10271000060a78009540800094408000063a280020
:1027200066427a000403fb0085824200e48e2000aa
:1027300004824200060a7800944080000402e80007
:10274000944088009540800034062000848f520019
:10275000e7ff34000002eb00044088001400200072
:1027600014408800941b8400a4408800941b8400bb
:1027700044408800941b840054408800441b84001b
:10278000b4408800441b840064408800441b8400db
:10279000744088000002eb00844088000002eb00d7
:1027a000c44088000002eb00d44088000002eb0027
:1027b000e44088000002eb00944088000000eb0039
:1027c0004e000700d5508000545a2a00848f5200d2
:1027d00048003a002000200048000700d450800044
:1027e000444088004000200044000700d45080008e
:1027f000544088006000200040000700d450800052
:1028000064408800800020003c000700d450800015
:1028100074408800a000200038000700d4508000d9
:1028200004408800c000200034000700d45080001d
:1028300014408800e000200030000700d4508000e1
:102840008440880044012000e44088000f003700e5
:10285000e5408000e44080000482420004007800eb
:1028600026000700e440800074025200d55080002a
:10287000040342006482200004024300050a780039
:10288000e44080000402e800e4408800e540800065
:1028900074072000848f5200edff3600840720006b
:1028a000e44088000f003700e5408000e4408000ed
:1028b000048242000400780010000700e440800019
:1028c0008407b100d550800004034200e48e20004c
:1028d00004024300050a7800e44080000402e80096
:1028e000e4408800e5408000b40d2000848f520051
:1028f000edff36000080fa00000006000400fa0038
:1029000010079800f4072000044278000440780083
:1029100032e0b70005e02f001e029000048f420055
:102920001e0278001402ba00d45088000000000093
:10293000053b80000400280004826200e00f520082
:10294000fbff3a000080fa00000006000600fa00d3
:10295000100798002107980044002400043b8800d9
:10296000f4072000044278000440780032e0b70009
:1029700005e02f001e029000048f42001e02780026
:10298000ae029000050abb000500fc0054052000c3
:10299000343b8800a40a2000343b880061e7a8008b
:1029a000000000000000000000000000053b800067
:1029b0000400280004826200e00f5200fbff3a008e
:1029c0000042eb000440780032e0b7000080fa00db
:1029d000000006000200fa00000f78001e027800d6
:1029e00024418800170037000002eb00e440880013
:1029f00009003700000000001511800004202000ad
:102a000004826200e00f5200fbff3a00e4408000c5
:102a10000402e800e4408800e540800074b521002d
:102a2000848f5200f3ff3600244180001442780066
:102a30000402fb0024118800244180000402e80005
:102a4000244188002441800014427800e04f520065
:102a5000e5ff3a000002eb00e44088000080fa0045
:102a6000000006000000fa00c03a2800d9ff070065
:102a7000c03a2800d7ff0700e0422800d5ff070032
:102a8000e0452800d3ff070080472800d1ff07005a
:102a900020492800cfff0700e04a2800cdff0700ab
:102aa000a04c2800cbff0700c04e2800c9ff07003c
:102ab000e0502800c7ff070060542800c5ff07004a
:102ac00070572800c3ff0700205a2800c1ff0700e5
:102ad000805b2800bfff0700e05c2800bdff070007
:102ae000405e2800bbff0700a05f2800b9ff070079
:102af00000612800b7ff070070622800b5ff0700db
:102b0000d0652800b3ff0700b0672800b1ff0700b9
:102b100030692800afff07000080fa0000000600bf
:102b20000000fa00c03a2800aaff0700c03a2800b7
:102b3000a8ff0700e0422800a6ff07003069280030
:102b4000a4ff07000080fa00000006003600f8002d
:102b5000809fbe00829fbe00849fbe00869fbe00f5
:102b60003400f80000002000a00188006a00fa008c
:102b70009540800024062000848f5200020034001b
:102b80003406200094408800964080003411800074
:102b900004427800659b200085024300844a780047
:102ba00095408000649b200004824200144278001b
:102bb000ed4f520046023a000002eb00040f78008d
:102bc0000002eb00e440880012003700e44080007f
:102bd00084024200c4a8200004824200140278004b
:102be00084007800609b200082f6070000027800d5
:102bf000140798001e029000e00f520002003200fd
:102c0000e4408000040f7800e44080000402e80003
:102c1000e4408800e4408000f00f5200ebff3600f3
:102c20001e027800cfa2de0006012000070020006f
:102c3000860f5200878f5a0007023e000460010091
:102c4000100037001400370013003700cf003700a2
:102c5000ce003700200137001f0137007101370017
:102c600075013700790137007d0137008101370098
:102c7000830137008501370089013700dd01370006
:102c8000e00137009069280052ff07000002eb00c6
:102c9000c4408800000237000002eb00e4408800d6
:102ca0000c003700e6408000e4408000e50242006e
:102cb000649b20000482420014427800659b20003f
:102cc00085024300844a7800e44080000402e80062
:102cd000e4408800e540800054042000848f5200c6
:102ce00007003e00e4408000e4024200649b2000b4
:102cf0000482420014427800e04f5200e9ff3a009b
:102d0000e44080008482e900649b200084824200c9
:102d10000042eb00844a7800609b20002dff0700f2
:102d200004408000e10f520003003a001e027800c8
:102d3000e10f52000600320014408000e10f520003
:102d400044003a001e027800e20f520041003a00af
:102d5000b2002000619b2000c0a1200014f60700f3
:102d6000c0a120000bf60700000278008402780062
:102d7000c4a1200004824200d2002000013b2800b0
:102d800004007800eaf507001e027800e10f520007
:102d900016003a000002eb00244088000002eb001d
:102da000944088000d0037009540800096408000d8
:102db000c4a1200004024300144278000403fb0075
:102dc000858242006482200004824200060a780064
:102dd000944080000402e800944088009540800000
:102de00034062000848f5200efff34001e0278006a
:102df000e20f52009f013a000002eb0034408800cd
:102e00000002eb00944088000d00370095408000e0
:102e100096408000c4a120000402430014427800c0
:102e20000403fb0085824200e48e200004824200fd
:102e3000060a7800944080000402e800944088006c
:102e40009540800034062000848f5200efff34004c
:102e50009101370004408000e00f520003003a0067
:102e60001e027800e10f520006003200144080007c
:102e7000e00f520081013a001e027800e20f52007a
:102e800080013a00609b2000c2f507000002780034
:102e900084027800649b200004824200d20020005b
:102ea000013b280004007800a1f5070064004700fa
:102eb000246d28000c00090034587800f102470006
:102ec00058000900805aeb0064024700619b200013
:102ed00004007800a4f507001e027800e10f5200fc
:102ee00013003a000002eb00944088000c00370009
:102ef00095408000944080000402470044429000c6
:102f00000403fb00858242006482200004824200a8
:102f1000060a7800944080000402e800944088008b
:102f20009540800034062000848f5200f0ff34006a
:102f30001e027800e20f520054013a000002eb003a
:102f4000944088000c003700954080009440800039
:102f500004024700444290000403fb0085824200c3
:102f6000e48e200004824200060a7800944080002b
:102f70000402e80094408800954080003406200058
:102f8000848f5200f0ff34004301370072002000ac
:102f9000619b200020a8200085f507000002eb00bf
:102fa000e440880012003700e440800084024200c0
:102fb00004ab2000048242001402780084007800f0
:102fc00020a820008bf50700000278001407980065
:102fd0001e029000e00f520002003200e440800028
:102fe00004418800e44080000402e800e4408800d6
:102ff000e4408000e70f5200ebff36000441800000
:10300000050020007600200007002000860f5200f7
:10301000878f5a0021003e0004600100070037003e
:10302000090037000b0037000d0037000f00370094
:10303000110037001300370015003700441b8400cf
:10304000b440880017003700b41b8400b4408800e7
:1030500014003700541b8400b4408800110037006e
:10306000641b8400b44088000e003700741b840089
:10307000b44088000b003700841b8400b4408800f3
:1030800008003700941b8400b44088000500370016
:10309000a41b8400b440880002003700441b840055
:1030a000b44088001e027800e30f520002003a008c
:1030b000b4408000644088001e027800e40f520093
:1030c00002003a00b4408000744088000002eb0027
:1030d000040f7800f000370062002000619b2000a0
:1030e00020a8200032f507000002eb00e440880031
:1030f00012003700e44080008402420004ab20004c
:1031000004824200140278008400780020a8200085
:1031100038f5070000027800140798001e0290009e
:10312000e00f520002003200e440800004418800b9
:10313000e44080000402e800e4408800e4408000ad
:10314000e70f5200ebff360004418000050020002d
:103150007600200007002000860f5200878f5a005b
:1031600021003e000460010007003700090037001d
:103170000b0037000d0037000f003700110037003b
:103180001300370015003700441b8400a44088005a
:1031900017003700b41b8400a440880014003700d7
:1031a000541b8400a440880011003700641b840075
:1031b000a44088000e003700741b8400a4408800df
:1031c0000b003700841b8400a440880008003700ef
:1031d000941b8400a440880005003700a41b8400d1
:1031e000a440880002003700441b8400a4408800eb
:1031f0001e027800e50f520002003a00a440800051
:10320000444088001e027800e60f520002003a0097
:10321000a4408000544088000002eb00040f7800b6
:103220009d0037000002eb000440880014002000dd
:1032300024408800980037000002eb00144088000a
:103240001400200034408800930037001400200050
:10325000044088000002eb00244088008e00370004
:1032600014002000144088000002eb003440880065
:103270008900370014002000844088008600370051
:103280000002eb008440880083003700306a280089
:10329000d0fd070014002000c44088007e003700e5
:1032a000c4408000e10f52007a003a00515a2a00cf
:1032b0000000eb00a5fd070044408000840078007a
:1032c00020002000a1fd0700544080008400780009
:1032d000400020009dfd07006440800084007800cd
:1032e0006000200099fd0700744080008400780091
:1032f0008000200095fd07000440800084007800d5
:10330000a000200091fd0700144080008400780098
:10331000c00020008dfd07008440800084007800fc
:10332000e000200089fd070044012000e4408800ff
:103330000f003700e4408000740252008402420013
:103340006482200004824200140278008402780023
:10335000e440800004024200850078000400780008
:103360007afd0700e44080000402e800e4408800a1
:10337000e540800074072000848f5200edff360086
:1033800084072000e44088000f003700e4408000fc
:103390008407b10084024200e48e200004824200cf
:1033a0001402780084027800e440800004024200a5
:1033b000850078000400780064fd0700e440800088
:1033c0000402e800e4408800e5408000b40d2000dd
:1033d000848f5200edff3600006b28007dfd070052
:1033e0000002eb00c44088000002eb00040f7800ec
:1033f000290037000002eb00e440880099fd070037
:1034000025003700206c280072fd070041232100b1
:103410000000eb004dfd07000002eb0004408800b7
:10342000140020001440880014002000244088006c
:103430000002eb0034408800a9fc070089fd07006a
:103440000042eb000440780032e0b7000002eb00dd
:10345000040f7800100037000002eb00c440880021
:103460000002eb00040f78000002eb00e44088004b
:1034700009003700000000000700370000000000ce
:1034800005003700000000000300370000000000c6
:103490000100370000000000420620008000eb0021
:1034a000609b200029f40700620620008000eb00ea
:1034b000c0a1200025f407000002eb009440880022
:1034c0000002eb00e44088008560a900040037009a
:1034d000944080000402e800944088008560a900c0
:1034e0000080fa003400f9004f03be004f02be0016
:1034f0004f01be004f00be003600f900004006003c
:103500000000fa000002eb00243a880000000000ee
:10351000153a80000402200004826200e00f52008d
:10352000fbff32000082eb00641988000002eb0010
:103530000416880064002000441688000002eb0096
:103540006416880094012000441188000002eb00fa
:1035500004118800044420001411880021e2a8000e
:103560002342a8009560a800141180000460a00008
:103570000470a100141188008560a9004405800032
:1035800004c0a10004d0a00004e0a100440588000c
:1035900000242400f10020004800070060fd07001f
:1035a0004ffc07000042eb000440780032e0b70017
:0835b0002ff60700ffff3700b2
:020000040000fa
:1035b800c00a00009a000000000000000008000097
:1035c8001c020000000000001c0a0000a40000000b
:1035d80002000000202020002020200020202000c1
:1035e8002020200000000000000000000000000073
:1035f80000000000000000000000000000000000c3
:1036080000000000000000000000000000000000b2
:1036180000000000000000000000000000000000a2
:103628000000000000000000000000000000000092
:103638000000000000000000000000000000000082
:103648000000000000000000000000000000000072
:1036580000000000000000000000000031323300cc
:10366800343536003700ae0083bd8300bf83c40005
:1036780083c98300ce83d30083d88300dd83e2002f
:1036880083e78300ec83f10083f78300ff83030063
:10369800840784000e8400000016840019841c002e
:1036a800841f840022842500842884002b84000041
:0436b800000000000e
:020000040000fa
:1036bc00f03fb1000180b10006003500ee030900b7
:1036cc0000000000403fb1000180b100fbff3d0055
:1036dc001000b000203fb00002003500008009004f
:0836ec000000000000000600d0
:020000040000fa
:0200000400fffb
:04fc000034120000ba
:020000040000fa
:0200000401f009
:04000800fdff0000f8
:020000040000fa
:0200000401f009
:04000c00fbff0000f6
:020000040000fa
:0200000401f009
:04001000fdff0000f0
:020000040000fa
:0200000401f009
:040014007fff00006a
:020000040000fa
:0200000401f009
:04001800f4ff0000f1
:020000040000fa
:0200000401f009
:040020003fff00009e
:00000001FF
